{
  "contractName": "CanWorkAdmin",
  "abi": [
    {
      "constant": true,
      "inputs": [
        {
          "name": "addr",
          "type": "address"
        },
        {
          "name": "roleName",
          "type": "string"
        }
      ],
      "name": "checkRole",
      "outputs": [],
      "payable": false,
      "stateMutability": "view",
      "type": "function"
    },
    {
      "constant": true,
      "inputs": [
        {
          "name": "roleName",
          "type": "string"
        },
        {
          "name": "index",
          "type": "uint256"
        }
      ],
      "name": "get",
      "outputs": [
        {
          "name": "",
          "type": "address"
        },
        {
          "name": "",
          "type": "bool"
        }
      ],
      "payable": false,
      "stateMutability": "view",
      "type": "function"
    },
    {
      "constant": true,
      "inputs": [
        {
          "name": "addr",
          "type": "address"
        },
        {
          "name": "roleName",
          "type": "string"
        }
      ],
      "name": "hasRole",
      "outputs": [
        {
          "name": "",
          "type": "bool"
        }
      ],
      "payable": false,
      "stateMutability": "view",
      "type": "function"
    },
    {
      "constant": true,
      "inputs": [],
      "name": "getAddress",
      "outputs": [
        {
          "name": "",
          "type": "address"
        }
      ],
      "payable": false,
      "stateMutability": "view",
      "type": "function"
    },
    {
      "constant": true,
      "inputs": [
        {
          "name": "id",
          "type": "bytes32"
        }
      ],
      "name": "getSignersCount",
      "outputs": [
        {
          "name": "",
          "type": "uint8"
        }
      ],
      "payable": false,
      "stateMutability": "view",
      "type": "function"
    },
    {
      "constant": true,
      "inputs": [
        {
          "name": "id",
          "type": "bytes32"
        },
        {
          "name": "index",
          "type": "uint256"
        }
      ],
      "name": "getSigner",
      "outputs": [
        {
          "name": "",
          "type": "address"
        },
        {
          "name": "",
          "type": "bool"
        }
      ],
      "payable": false,
      "stateMutability": "view",
      "type": "function"
    },
    {
      "constant": false,
      "inputs": [
        {
          "name": "id",
          "type": "bytes32"
        }
      ],
      "name": "resetSignature",
      "outputs": [
        {
          "name": "",
          "type": "bool"
        }
      ],
      "payable": false,
      "stateMutability": "nonpayable",
      "type": "function"
    },
    {
      "constant": true,
      "inputs": [],
      "name": "getSender",
      "outputs": [
        {
          "name": "",
          "type": "address"
        }
      ],
      "payable": false,
      "stateMutability": "view",
      "type": "function"
    },
    {
      "constant": true,
      "inputs": [],
      "name": "ROLE_OWNER",
      "outputs": [
        {
          "name": "",
          "type": "string"
        }
      ],
      "payable": false,
      "stateMutability": "view",
      "type": "function"
    },
    {
      "constant": true,
      "inputs": [
        {
          "name": "contractName",
          "type": "string"
        },
        {
          "name": "migrationId",
          "type": "string"
        }
      ],
      "name": "isMigrated",
      "outputs": [
        {
          "name": "",
          "type": "bool"
        }
      ],
      "payable": false,
      "stateMutability": "view",
      "type": "function"
    },
    {
      "constant": true,
      "inputs": [
        {
          "name": "roleName",
          "type": "string"
        }
      ],
      "name": "size",
      "outputs": [
        {
          "name": "",
          "type": "uint256"
        }
      ],
      "payable": false,
      "stateMutability": "view",
      "type": "function"
    },
    {
      "constant": true,
      "inputs": [],
      "name": "ROLE_ADMIN",
      "outputs": [
        {
          "name": "",
          "type": "string"
        }
      ],
      "payable": false,
      "stateMutability": "view",
      "type": "function"
    },
    {
      "constant": false,
      "inputs": [
        {
          "name": "signer",
          "type": "address"
        },
        {
          "name": "id",
          "type": "bytes32"
        }
      ],
      "name": "addSig",
      "outputs": [
        {
          "name": "",
          "type": "uint8"
        }
      ],
      "payable": false,
      "stateMutability": "nonpayable",
      "type": "function"
    },
    {
      "anonymous": false,
      "inputs": [
        {
          "indexed": false,
          "name": "contractName",
          "type": "string"
        },
        {
          "indexed": false,
          "name": "migrationId",
          "type": "string"
        }
      ],
      "name": "Migrated",
      "type": "event"
    },
    {
      "anonymous": false,
      "inputs": [
        {
          "indexed": false,
          "name": "addr",
          "type": "address"
        },
        {
          "indexed": false,
          "name": "roleName",
          "type": "string"
        }
      ],
      "name": "RoleAdded",
      "type": "event"
    },
    {
      "anonymous": false,
      "inputs": [
        {
          "indexed": false,
          "name": "addr",
          "type": "address"
        },
        {
          "indexed": false,
          "name": "roleName",
          "type": "string"
        }
      ],
      "name": "RoleRemoved",
      "type": "event"
    },
    {
      "anonymous": false,
      "inputs": [
        {
          "indexed": true,
          "name": "signer",
          "type": "address"
        },
        {
          "indexed": false,
          "name": "id",
          "type": "bytes32"
        }
      ],
      "name": "SignatureAdded",
      "type": "event"
    },
    {
      "constant": false,
      "inputs": [
        {
          "name": "initialOwner1",
          "type": "address"
        },
        {
          "name": "initialOwner2",
          "type": "address"
        },
        {
          "name": "initialOwner3",
          "type": "address"
        }
      ],
      "name": "initialize",
      "outputs": [],
      "payable": false,
      "stateMutability": "nonpayable",
      "type": "function"
    },
    {
      "constant": false,
      "inputs": [
        {
          "name": "_owner",
          "type": "address"
        }
      ],
      "name": "addOwner",
      "outputs": [
        {
          "name": "",
          "type": "bool"
        }
      ],
      "payable": false,
      "stateMutability": "nonpayable",
      "type": "function"
    },
    {
      "constant": false,
      "inputs": [
        {
          "name": "_owner",
          "type": "address"
        }
      ],
      "name": "removeOwner",
      "outputs": [
        {
          "name": "",
          "type": "bool"
        }
      ],
      "payable": false,
      "stateMutability": "nonpayable",
      "type": "function"
    },
    {
      "constant": false,
      "inputs": [
        {
          "name": "_admin",
          "type": "address"
        }
      ],
      "name": "addAdmin",
      "outputs": [
        {
          "name": "",
          "type": "bool"
        }
      ],
      "payable": false,
      "stateMutability": "nonpayable",
      "type": "function"
    },
    {
      "constant": false,
      "inputs": [
        {
          "name": "_admin",
          "type": "address"
        }
      ],
      "name": "removeAdmin",
      "outputs": [
        {
          "name": "",
          "type": "bool"
        }
      ],
      "payable": false,
      "stateMutability": "nonpayable",
      "type": "function"
    },
    {
      "constant": true,
      "inputs": [
        {
          "name": "roleName",
          "type": "bytes32"
        }
      ],
      "name": "getRoleMembersCount",
      "outputs": [
        {
          "name": "",
          "type": "uint256"
        }
      ],
      "payable": false,
      "stateMutability": "view",
      "type": "function"
    },
    {
      "constant": true,
      "inputs": [
        {
          "name": "roleName",
          "type": "bytes32"
        },
        {
          "name": "index",
          "type": "uint256"
        }
      ],
      "name": "getRoleMember",
      "outputs": [
        {
          "name": "",
          "type": "address"
        },
        {
          "name": "",
          "type": "bool"
        }
      ],
      "payable": false,
      "stateMutability": "view",
      "type": "function"
    },
    {
      "constant": true,
      "inputs": [
        {
          "name": "operation",
          "type": "bytes32"
        },
        {
          "name": "_owner",
          "type": "address"
        }
      ],
      "name": "getOperationSignersCount",
      "outputs": [
        {
          "name": "",
          "type": "uint256"
        }
      ],
      "payable": false,
      "stateMutability": "view",
      "type": "function"
    },
    {
      "constant": true,
      "inputs": [
        {
          "name": "operation",
          "type": "bytes32"
        },
        {
          "name": "_owner",
          "type": "address"
        },
        {
          "name": "index",
          "type": "uint256"
        }
      ],
      "name": "getOperationSigner",
      "outputs": [
        {
          "name": "",
          "type": "address"
        },
        {
          "name": "",
          "type": "bool"
        }
      ],
      "payable": false,
      "stateMutability": "view",
      "type": "function"
    }
  ],
  "bytecode": "0x608060405234801561001057600080fd5b506129de806100206000396000f300608060405260043610610128576000357c0100000000000000000000000000000000000000000000000000000000900463ffffffff1680630988ca8c1461012d578063173825d9146101b65780631785f53c146102115780631be5e7ed1461026c578063217fe6c61461032a5780632424f9ca146103cb57806338cc48311461043057806346aaf139146104875780634fa6caf6146104d2578063593c1acb146105585780635969c0e1146105fe5780635e01eb5a14610647578063704802751461069e5780637065cb48146106f95780638ad682af146107545780639010d07c146107e4578063a83854c91461086a578063c0bac1a8146108af578063c0c53b8b14610976578063ce869903146109f9578063d391014b14610a76578063e287adf414610b06575b600080fd5b34801561013957600080fd5b506101b4600480360381019080803573ffffffffffffffffffffffffffffffffffffffff169060200190929190803590602001908201803590602001908080601f0160208091040260200160405190810160405280939291908181526020018383808284378201915050505050509192919290505050610b71565b005b3480156101c257600080fd5b506101f7600480360381019080803573ffffffffffffffffffffffffffffffffffffffff169060200190929190505050610bf2565b604051808215151515815260200191505060405180910390f35b34801561021d57600080fd5b50610252600480360381019080803573ffffffffffffffffffffffffffffffffffffffff169060200190929190505050610e6d565b604051808215151515815260200191505060405180910390f35b34801561027857600080fd5b506102dd600480360381019080803590602001908201803590602001908080601f016020809104026020016040519081016040528093929190818152602001838380828437820191505050505050919291929080359060200190929190505050610f7e565b604051808373ffffffffffffffffffffffffffffffffffffffff1673ffffffffffffffffffffffffffffffffffffffff168152602001821515151581526020019250505060405180910390f35b34801561033657600080fd5b506103b1600480360381019080803573ffffffffffffffffffffffffffffffffffffffff169060200190929190803590602001908201803590602001908080601f0160208091040260200160405190810160405280939291908181526020018383808284378201915050505050509192919290505050611009565b604051808215151515815260200191505060405180910390f35b3480156103d757600080fd5b5061041a6004803603810190808035600019169060200190929190803573ffffffffffffffffffffffffffffffffffffffff169060200190929190505050611090565b6040518082815260200191505060405180910390f35b34801561043c57600080fd5b5061044561120b565b604051808273ffffffffffffffffffffffffffffffffffffffff1673ffffffffffffffffffffffffffffffffffffffff16815260200191505060405180910390f35b34801561049357600080fd5b506104b66004803603810190808035600019169060200190929190505050611213565b604051808260ff1660ff16815260200191505060405180910390f35b3480156104de57600080fd5b5061050b600480360381019080803560001916906020019092919080359060200190929190505050611247565b604051808373ffffffffffffffffffffffffffffffffffffffff1673ffffffffffffffffffffffffffffffffffffffff168152602001821515151581526020019250505060405180910390f35b34801561056457600080fd5b506105b16004803603810190808035600019169060200190929190803573ffffffffffffffffffffffffffffffffffffffff16906020019092919080359060200190929190505050611318565b604051808373ffffffffffffffffffffffffffffffffffffffff1673ffffffffffffffffffffffffffffffffffffffff168152602001821515151581526020019250505060405180910390f35b34801561060a57600080fd5b5061062d6004803603810190808035600019169060200190929190505050611497565b604051808215151515815260200191505060405180910390f35b34801561065357600080fd5b5061065c6115e1565b604051808273ffffffffffffffffffffffffffffffffffffffff1673ffffffffffffffffffffffffffffffffffffffff16815260200191505060405180910390f35b3480156106aa57600080fd5b506106df600480360381019080803573ffffffffffffffffffffffffffffffffffffffff1690602001909291905050506115e9565b604051808215151515815260200191505060405180910390f35b34801561070557600080fd5b5061073a600480360381019080803573ffffffffffffffffffffffffffffffffffffffff1690602001909291905050506116fb565b604051808215151515815260200191505060405180910390f35b34801561076057600080fd5b50610769611977565b6040518080602001828103825283818151815260200191508051906020019080838360005b838110156107a957808201518184015260208101905061078e565b50505050905090810190601f1680156107d65780820380516001836020036101000a031916815260200191505b509250505060405180910390f35b3480156107f057600080fd5b5061081d6004803603810190808035600019169060200190929190803590602001909291905050506119b0565b604051808373ffffffffffffffffffffffffffffffffffffffff1673ffffffffffffffffffffffffffffffffffffffff168152602001821515151581526020019250505060405180910390f35b34801561087657600080fd5b5061089960048036038101908080356000191690602001909291905050506119d4565b6040518082815260200191505060405180910390f35b3480156108bb57600080fd5b5061095c600480360381019080803590602001908201803590602001908080601f0160208091040260200160405190810160405280939291908181526020018383808284378201915050505050509192919290803590602001908201803590602001908080601f01602080910402602001604051908101604052809392919081815260200183838082843782019150505050505091929192905050506119f2565b604051808215151515815260200191505060405180910390f35b34801561098257600080fd5b506109f7600480360381019080803573ffffffffffffffffffffffffffffffffffffffff169060200190929190803573ffffffffffffffffffffffffffffffffffffffff169060200190929190803573ffffffffffffffffffffffffffffffffffffffff169060200190929190505050611ade565b005b348015610a0557600080fd5b50610a60600480360381019080803590602001908201803590602001908080601f0160208091040260200160405190810160405280939291908181526020018383808284378201915050505050509192919290505050611ec8565b6040518082815260200191505060405180910390f35b348015610a8257600080fd5b50610a8b611f44565b6040518080602001828103825283818151815260200191508051906020019080838360005b83811015610acb578082015181840152602081019050610ab0565b50505050905090810190601f168015610af85780820380516001836020036101000a031916815260200191505b509250505060405180910390f35b348015610b1257600080fd5b50610b55600480360381019080803573ffffffffffffffffffffffffffffffffffffffff1690602001909291908035600019169060200190929190505050611f7d565b604051808260ff1660ff16815260200191505060405180910390f35b610bee826001836040518082805190602001908083835b602083101515610bad5780518252602082019150602081019050602083039250610b88565b6001836020036101000a03801982511681845116808217855250505050505090500191505090815260200160405180910390206121fb90919063ffffffff16565b5050565b6000806040805190810160405280600581526020017f6f776e6572000000000000000000000000000000000000000000000000000000815250610c353382610b71565b600073ffffffffffffffffffffffffffffffffffffffff168473ffffffffffffffffffffffffffffffffffffffff1614151515610c7157600080fd5b610cb0846040805190810160405280600581526020017f6f776e6572000000000000000000000000000000000000000000000000000000815250611009565b1515610cbb57600080fd5b3084604051602001808373ffffffffffffffffffffffffffffffffffffffff1673ffffffffffffffffffffffffffffffffffffffff166c010000000000000000000000000281526014018273ffffffffffffffffffffffffffffffffffffffff1673ffffffffffffffffffffffffffffffffffffffff166c01000000000000000000000000028152601401807f72656d6f76654f776e6572000000000000000000000000000000000000000000815250600b01925050506040516020818303038152906040526040518082805190602001908083835b602083101515610db65780518252602082019150602081019050602083039250610d91565b6001836020036101000a038019825116818451168082178552505050505050905001915050604051809103902091506002610df083611213565b60ff161015610e0d57610e033383611f7d565b5060009250610e66565b610e173383611f7d565b50610e2182611497565b50610e61846040805190810160405280600581526020017f6f776e6572000000000000000000000000000000000000000000000000000000815250612214565b600192505b5050919050565b60006040805190810160405280600581526020017f6f776e6572000000000000000000000000000000000000000000000000000000815250610eaf3382610b71565b600073ffffffffffffffffffffffffffffffffffffffff168373ffffffffffffffffffffffffffffffffffffffff1614151515610eeb57600080fd5b610f2a836040805190810160405280600581526020017f61646d696e000000000000000000000000000000000000000000000000000000815250611009565b1515610f3557600080fd5b610f74836040805190810160405280600581526020017f61646d696e000000000000000000000000000000000000000000000000000000815250612214565b6001915050919050565b600080610ffe836001866040518082805190602001908083835b602083101515610fbd5780518252602082019150602081019050602083039250610f98565b6001836020036101000a038019825116818451168082178552505050505050905001915050908152602001604051809103902061236590919063ffffffff16565b915091509250929050565b6000611088836001846040518082805190602001908083835b6020831015156110475780518252602082019150602081019050602083039250611022565b6001836020036101000a038019825116818451168082178552505050505050905001915050908152602001604051809103902061240790919063ffffffff16565b905092915050565b60008030836110a28660001916612463565b604051602001808473ffffffffffffffffffffffffffffffffffffffff1673ffffffffffffffffffffffffffffffffffffffff166c010000000000000000000000000281526014018373ffffffffffffffffffffffffffffffffffffffff1673ffffffffffffffffffffffffffffffffffffffff166c0100000000000000000000000002815260140182805190602001908083835b60208310151561115c5780518252602082019150602081019050602083039250611137565b6001836020036101000a03801982511681845116808217855250505050505090500193505050506040516020818303038152906040526040518082805190602001908083835b6020831015156111c757805182526020820191506020810190506020830392506111a2565b6001836020036101000a038019825116818451168082178552505050505050905001915050604051809103902090506111ff81611213565b60ff1691505092915050565b600030905090565b6000806000836000191660001916815260200190815260200160002060020160009054906101000a900460ff169050919050565b600080600080600086600019166000191681526020019081526020016000206000018481548110151561127657fe5b9060005260206000200160009054906101000a900473ffffffffffffffffffffffffffffffffffffffff16905080600080876000191660001916815260200190815260200160002060010160008373ffffffffffffffffffffffffffffffffffffffff1673ffffffffffffffffffffffffffffffffffffffff16815260200190815260200160002060009054906101000a900460ff1692509250509250929050565b6000806000308561132c8860001916612463565b604051602001808473ffffffffffffffffffffffffffffffffffffffff1673ffffffffffffffffffffffffffffffffffffffff166c010000000000000000000000000281526014018373ffffffffffffffffffffffffffffffffffffffff1673ffffffffffffffffffffffffffffffffffffffff166c0100000000000000000000000002815260140182805190602001908083835b6020831015156113e657805182526020820191506020810190506020830392506113c1565b6001836020036101000a03801982511681845116808217855250505050505090500193505050506040516020818303038152906040526040518082805190602001908083835b602083101515611451578051825260208201915060208101905060208303925061142c565b6001836020036101000a0380198251168184511680821785525050505050509050019150506040518091039020905061148a8185611247565b9250925050935093915050565b600080600080600080866000191660001916815260200190815260200160002060020160006101000a81548160ff021916908360ff160217905550600091505b6000808560001916600019168152602001908152602001600020600001805490508210156115d65760008085600019166000191681526020019081526020016000206000018281548110151561152957fe5b9060005260206000200160009054906101000a900473ffffffffffffffffffffffffffffffffffffffff1690506000806000866000191660001916815260200190815260200160002060010160008373ffffffffffffffffffffffffffffffffffffffff1673ffffffffffffffffffffffffffffffffffffffff16815260200190815260200160002060006101000a81548160ff02191690831515021790555081806001019250506114d7565b600192505050919050565b600033905090565b60006040805190810160405280600581526020017f6f776e657200000000000000000000000000000000000000000000000000000081525061162b3382610b71565b600073ffffffffffffffffffffffffffffffffffffffff168373ffffffffffffffffffffffffffffffffffffffff161415151561166757600080fd5b6116a6836040805190810160405280600581526020017f61646d696e000000000000000000000000000000000000000000000000000000815250611009565b1515156116b257600080fd5b6116f1836040805190810160405280600581526020017f61646d696e00000000000000000000000000000000000000000000000000000081525061265f565b6001915050919050565b6000806040805190810160405280600581526020017f6f776e657200000000000000000000000000000000000000000000000000000081525061173e3382610b71565b600073ffffffffffffffffffffffffffffffffffffffff168473ffffffffffffffffffffffffffffffffffffffff161415151561177a57600080fd5b6117b9846040805190810160405280600581526020017f6f776e6572000000000000000000000000000000000000000000000000000000815250611009565b1515156117c557600080fd5b3084604051602001808373ffffffffffffffffffffffffffffffffffffffff1673ffffffffffffffffffffffffffffffffffffffff166c010000000000000000000000000281526014018273ffffffffffffffffffffffffffffffffffffffff1673ffffffffffffffffffffffffffffffffffffffff166c01000000000000000000000000028152601401807f6164644f776e6572000000000000000000000000000000000000000000000000815250600801925050506040516020818303038152906040526040518082805190602001908083835b6020831015156118c0578051825260208201915060208101905060208303925061189b565b6001836020036101000a0380198251168184511680821785525050505050509050019150506040518091039020915060026118fa83611213565b60ff1610156119175761190d3383611f7d565b5060009250611970565b6119213383611f7d565b50611961846040805190810160405280600581526020017f6f776e657200000000000000000000000000000000000000000000000000000081525061265f565b61196a82611497565b50600192505b5050919050565b6040805190810160405280600581526020017f6f776e657200000000000000000000000000000000000000000000000000000081525081565b6000806119c96119c38560001916612463565b84610f7e565b915091509250929050565b60006119eb6119e68360001916612463565b611ec8565b9050919050565b60006002836040518082805190602001908083835b602083101515611a2c5780518252602082019150602081019050602083039250611a07565b6001836020036101000a0380198251168184511680821785525050505050509050019150509081526020016040518091039020826040518082805190602001908083835b602083101515611a955780518252602082019150602081019050602083039250611a70565b6001836020036101000a038019825116818451168082178552505050505050905001915050908152602001604051809103902060009054906101000a900460ff16905092915050565b6040805190810160405280600c81526020017f43616e576f726b41646d696e00000000000000000000000000000000000000008152506040805190810160405280600581526020017f302e312e32000000000000000000000000000000000000000000000000000000815250611b5482826119f2565b151515611b6057600080fd5b600073ffffffffffffffffffffffffffffffffffffffff168573ffffffffffffffffffffffffffffffffffffffff1614158015611bca5750600073ffffffffffffffffffffffffffffffffffffffff168473ffffffffffffffffffffffffffffffffffffffff1614155b8015611c035750600073ffffffffffffffffffffffffffffffffffffffff168373ffffffffffffffffffffffffffffffffffffffff1614155b1515611c0e57600080fd5b611c4d856040805190810160405280600581526020017f6f776e657200000000000000000000000000000000000000000000000000000081525061265f565b611c8c846040805190810160405280600581526020017f6f776e657200000000000000000000000000000000000000000000000000000081525061265f565b611ccb836040805190810160405280600581526020017f6f776e657200000000000000000000000000000000000000000000000000000081525061265f565b7fdd117a11c22118c9dee4b5a67ce578bc44529dce21ee0ccc439588fbb9fb4ea38282604051808060200180602001838103835285818151815260200191508051906020019080838360005b83811015611d32578082015181840152602081019050611d17565b50505050905090810190601f168015611d5f5780820380516001836020036101000a031916815260200191505b50838103825284818151815260200191508051906020019080838360005b83811015611d98578082015181840152602081019050611d7d565b50505050905090810190601f168015611dc55780820380516001836020036101000a031916815260200191505b5094505050505060405180910390a160016002836040518082805190602001908083835b602083101515611e0e5780518252602082019150602081019050602083039250611de9565b6001836020036101000a0380198251168184511680821785525050505050509050019150509081526020016040518091039020826040518082805190602001908083835b602083101515611e775780518252602082019150602081019050602083039250611e52565b6001836020036101000a038019825116818451168082178552505050505050905001915050908152602001604051809103902060006101000a81548160ff0219169083151502179055505050505050565b6000611f3d6001836040518082805190602001908083835b602083101515611f055780518252602082019150602081019050602083039250611ee0565b6001836020036101000a038019825116818451168082178552505050505050905001915050908152602001604051809103902061282f565b9050919050565b6040805190810160405280600581526020017f61646d696e00000000000000000000000000000000000000000000000000000081525081565b60008073ffffffffffffffffffffffffffffffffffffffff168373ffffffffffffffffffffffffffffffffffffffff1614151515611fba57600080fd5b60011515600080846000191660001916815260200190815260200160002060010160008573ffffffffffffffffffffffffffffffffffffffff1673ffffffffffffffffffffffffffffffffffffffff16815260200190815260200160002060009054906101000a900460ff1615151415151561203557600080fd5b6001600080846000191660001916815260200190815260200160002060020160008282829054906101000a900460ff160192506101000a81548160ff021916908360ff16021790555060008083600019166000191681526020019081526020016000206000018390806001815401808255809150509060018203906000526020600020016000909192909190916101000a81548173ffffffffffffffffffffffffffffffffffffffff021916908373ffffffffffffffffffffffffffffffffffffffff160217905550506001600080846000191660001916815260200190815260200160002060010160008573ffffffffffffffffffffffffffffffffffffffff1673ffffffffffffffffffffffffffffffffffffffff16815260200190815260200160002060006101000a81548160ff0219169083151502179055508273ffffffffffffffffffffffffffffffffffffffff167f239f795bdbf221430ed76c684f97bb97a7058941758190635766dbc1938e00878360405180826000191660001916815260200191505060405180910390a2600080836000191660001916815260200190815260200160002060020160009054906101000a900460ff16905092915050565b6122058282612407565b151561221057600080fd5b5050565b612291826001836040518082805190602001908083835b602083101515612250578051825260208201915060208101905060208303925061222b565b6001836020036101000a038019825116818451168082178552505050505050905001915050908152602001604051809103902061284090919063ffffffff16565b7fd211483f91fc6eff862467f8de606587a30c8fc9981056f051b897a418df803a8282604051808373ffffffffffffffffffffffffffffffffffffffff1673ffffffffffffffffffffffffffffffffffffffff16815260200180602001828103825283818151815260200191508051906020019080838360005b8381101561232657808201518184015260208101905061230b565b50505050905090810190601f1680156123535780820380516001836020036101000a031916815260200191505b50935050505060405180910390a15050565b6000806000846000018481548110151561237b57fe5b9060005260206000200160009054906101000a900473ffffffffffffffffffffffffffffffffffffffff169050808560010160008373ffffffffffffffffffffffffffffffffffffffff1673ffffffffffffffffffffffffffffffffffffffff16815260200190815260200160002060010160009054906101000a900460ff1692509250509250929050565b60008260010160008373ffffffffffffffffffffffffffffffffffffffff1673ffffffffffffffffffffffffffffffffffffffff16815260200190815260200160002060010160009054906101000a900460ff16905092915050565b6060806000806000606060206040519080825280601f01601f1916602001820160405280156124a15781602001602082028038833980820191505090505b50945060009350600092505b602083101561256b578260080260020a876001900402600102915060007f010000000000000000000000000000000000000000000000000000000000000002827effffffffffffffffffffffffffffffffffffffffffffffffffffffffffffff191614151561255e5781858581518110151561252557fe5b9060200101907effffffffffffffffffffffffffffffffffffffffffffffffffffffffffffff1916908160001a90535083806001019450505b82806001019350506124ad565b836040519080825280601f01601f19166020018201604052801561259e5781602001602082028038833980820191505090505b509050600092505b838310156126525784838151811015156125bc57fe5b9060200101517f010000000000000000000000000000000000000000000000000000000000000090047f010000000000000000000000000000000000000000000000000000000000000002818481518110151561261557fe5b9060200101907effffffffffffffffffffffffffffffffffffffffffffffffffffffffffffff1916908160001a90535082806001019350506125a6565b8095505050505050919050565b6126698282611009565b1515156126de576040517f08c379a000000000000000000000000000000000000000000000000000000000815260040180806020018281038252601a8152602001807f5573657220616c726561647920686173207468697320726f6c6500000000000081525060200191505060405180910390fd5b61275b826001836040518082805190602001908083835b60208310151561271a57805182526020820191506020810190506020830392506126f5565b6001836020036101000a03801982511681845116808217855250505050505090500191505090815260200160405180910390206128a190919063ffffffff16565b7fbfec83d64eaa953f2708271a023ab9ee82057f8f3578d548c1a4ba0b5b7004898282604051808373ffffffffffffffffffffffffffffffffffffffff1673ffffffffffffffffffffffffffffffffffffffff16815260200180602001828103825283818151815260200191508051906020019080838360005b838110156127f05780820151818401526020810190506127d5565b50505050905090810190601f16801561281d5780820380516001836020036101000a031916815260200191505b50935050505060405180910390a15050565b600081600001805490509050919050565b60008260010160008373ffffffffffffffffffffffffffffffffffffffff1673ffffffffffffffffffffffffffffffffffffffff16815260200190815260200160002060010160006101000a81548160ff0219169083151502179055505050565b60008260010160008373ffffffffffffffffffffffffffffffffffffffff1673ffffffffffffffffffffffffffffffffffffffff16815260200190815260200160002090506000816000015414801561290f5750600015158160010160009054906101000a900460ff161515145b156129905760018360000180549050038160000181905550826000018290806001815401808255809150509060018203906000526020600020016000909192909190916101000a81548173ffffffffffffffffffffffffffffffffffffffff021916908373ffffffffffffffffffffffffffffffffffffffff160217905550505b60018160010160006101000a81548160ff0219169083151502179055505050505600a165627a7a723058203b2deffdc4823431f978392ca3d36fe3470c90ab4a113074696f60b41c186b400029",
  "source": "pragma solidity 0.4.24;\n\n// import \"openzeppelin-zos/contracts/token/ERC20/ERC20.sol\";\n// import \"zos-lib/contracts/migrations/Migratable.sol\";\nimport \"./ERC20.sol\";\nimport \"./Migratable.sol\";\nimport \"./RBAC.sol\";\nimport \"./MultiSig.sol\";\nimport \"./Bytes32Utils.sol\";\nimport \"./Debugable.sol\";\n\ncontract CanWorkAdmin is MultiSig, RBAC, Migratable, Debugable {\n  using Bytes32Utils for bytes32;\n\n  string public constant ROLE_OWNER = \"owner\";\n  string public constant ROLE_ADMIN = \"admin\";  \n\n  function initialize(address initialOwner1, address initialOwner2, address initialOwner3) \n  public \n  isInitializer(\"CanWorkAdmin\", \"0.1.2\")\n  {\n    require(initialOwner1 != address(0) && initialOwner2 != address(0) && initialOwner3 != address(0));\n    \n    addRole(initialOwner1, ROLE_OWNER);\n    addRole(initialOwner2, ROLE_OWNER);\n    addRole(initialOwner3, ROLE_OWNER);\n  } \n\n  function addOwner(address _owner) \n  public \n  onlyRole(ROLE_OWNER) \n  returns (bool)\n  {\n    require(_owner != address(0));\n    require(!hasRole(_owner, ROLE_OWNER));\n\n    bytes32 uniqueId = keccak256(abi.encodePacked(address(this), _owner, \"addOwner\"));\n\n    if (getSignersCount(uniqueId) < 2) {\n      addSig(msg.sender, uniqueId);\n      return false;\n    }\n\n    addSig(msg.sender, uniqueId);\n\n    addRole(_owner, ROLE_OWNER);\n\n    resetSignature(uniqueId);\n    \n    return true;\n  }\n\n  function removeOwner(address _owner) \n  public \n  onlyRole(ROLE_OWNER)\n  returns (bool)\n  {\n    require(_owner != address(0));\n    require(hasRole(_owner, ROLE_OWNER));\n\n    bytes32 uniqueId = keccak256(abi.encodePacked(address(this), _owner, \"removeOwner\"));\n\n    if (getSignersCount(uniqueId) < 2) {\n      addSig(msg.sender, uniqueId);\n      return false;\n    }\n\n    addSig(msg.sender, uniqueId);\n\n    resetSignature(uniqueId);\n\n    removeRole(_owner, ROLE_OWNER);\n    \n    return true;\n  }  \n\n  function addAdmin(address _admin) \n  public \n  onlyRole(ROLE_OWNER)\n  returns (bool)\n  {\n    require(_admin != address(0));\n    require(!hasRole(_admin, ROLE_ADMIN));\n\n    addRole(_admin, ROLE_ADMIN);\n    \n    return true;\n  }\n\n  function removeAdmin(address _admin) \n  public \n  onlyRole(ROLE_OWNER) \n  returns (bool)\n  {\n    require(_admin != address(0));\n    require(hasRole(_admin, ROLE_ADMIN));\n\n    removeRole(_admin, ROLE_ADMIN);\n    \n    return true;\n  }    \n\n  function getRoleMembersCount(bytes32 roleName)\n  public \n  view \n  returns (uint256)\n  {\n    return size(roleName.bytes32ToStr());\n  }\n\n  function getRoleMember(bytes32 roleName, uint256 index) \n  public \n  view \n  returns (address,bool)\n  {\n    return get(roleName.bytes32ToStr(), index);\n  }  \n\n  function getOperationSignersCount(bytes32 operation, address _owner) \n  public \n  view \n  returns(uint)\n  {   \n    bytes32 uniqueId = keccak256(abi.encodePacked(address(this), _owner, operation.bytes32ToStr()));\n    return getSignersCount(uniqueId);\n  }\n\n  function getOperationSigner(bytes32 operation, address _owner, uint index) \n  public \n  view \n  returns (address,bool)\n  {\n    bytes32 uniqueId = keccak256(abi.encodePacked(address(this), _owner, operation.bytes32ToStr()));\n    return getSigner(uniqueId, index);    \n  }\n  \n}",
  "sourcePath": "/Users/user/workspace_work/CanYa/canwork-contracts/canwork-admin/contracts/CanWorkAdmin.sol",
  "compiler": {
    "name": "solc",
    "version": "0.4.24+commit.e67f0147.Emscripten.clang"
  },
  "schemaVersion": "2.0.0",
  "updatedAt": "2018-07-23T06:17:11.996Z"
}