{
  "contractName": "CanWorkJob",
  "abi": [
    {
      "constant": true,
      "inputs": [
        {
          "name": "addr",
          "type": "address"
        },
        {
          "name": "roleName",
          "type": "string"
        }
      ],
      "name": "checkRole",
      "outputs": [],
      "payable": false,
      "stateMutability": "view",
      "type": "function"
    },
    {
      "constant": false,
      "inputs": [
        {
          "name": "toAddress",
          "type": "address"
        }
      ],
      "name": "emergencyTransfer",
      "outputs": [
        {
          "name": "",
          "type": "bool"
        }
      ],
      "payable": false,
      "stateMutability": "nonpayable",
      "type": "function"
    },
    {
      "constant": true,
      "inputs": [
        {
          "name": "index",
          "type": "uint256"
        }
      ],
      "name": "getAdmin",
      "outputs": [
        {
          "name": "",
          "type": "address"
        },
        {
          "name": "",
          "type": "bool"
        }
      ],
      "payable": false,
      "stateMutability": "view",
      "type": "function"
    },
    {
      "constant": false,
      "inputs": [
        {
          "name": "_owner",
          "type": "address"
        }
      ],
      "name": "removeOwner",
      "outputs": [
        {
          "name": "",
          "type": "bool"
        }
      ],
      "payable": false,
      "stateMutability": "nonpayable",
      "type": "function"
    },
    {
      "constant": false,
      "inputs": [
        {
          "name": "_admin",
          "type": "address"
        }
      ],
      "name": "removeAdmin",
      "outputs": [
        {
          "name": "",
          "type": "bool"
        }
      ],
      "payable": false,
      "stateMutability": "nonpayable",
      "type": "function"
    },
    {
      "constant": true,
      "inputs": [
        {
          "name": "roleName",
          "type": "string"
        },
        {
          "name": "index",
          "type": "uint256"
        }
      ],
      "name": "get",
      "outputs": [
        {
          "name": "",
          "type": "address"
        },
        {
          "name": "",
          "type": "bool"
        }
      ],
      "payable": false,
      "stateMutability": "view",
      "type": "function"
    },
    {
      "constant": true,
      "inputs": [
        {
          "name": "addr",
          "type": "address"
        },
        {
          "name": "roleName",
          "type": "string"
        }
      ],
      "name": "hasRole",
      "outputs": [
        {
          "name": "",
          "type": "bool"
        }
      ],
      "payable": false,
      "stateMutability": "view",
      "type": "function"
    },
    {
      "constant": true,
      "inputs": [
        {
          "name": "operation",
          "type": "bytes32"
        },
        {
          "name": "_owner",
          "type": "address"
        }
      ],
      "name": "getOperationSignersCount",
      "outputs": [
        {
          "name": "",
          "type": "uint256"
        }
      ],
      "payable": false,
      "stateMutability": "view",
      "type": "function"
    },
    {
      "constant": true,
      "inputs": [],
      "name": "getAddress",
      "outputs": [
        {
          "name": "",
          "type": "address"
        }
      ],
      "payable": false,
      "stateMutability": "view",
      "type": "function"
    },
    {
      "constant": false,
      "inputs": [
        {
          "name": "_percentage",
          "type": "uint8"
        }
      ],
      "name": "setCanWorkPaymentPercentage",
      "outputs": [
        {
          "name": "",
          "type": "bool"
        }
      ],
      "payable": false,
      "stateMutability": "nonpayable",
      "type": "function"
    },
    {
      "constant": true,
      "inputs": [
        {
          "name": "operation",
          "type": "bytes32"
        },
        {
          "name": "_owner",
          "type": "address"
        },
        {
          "name": "index",
          "type": "uint256"
        }
      ],
      "name": "getOperationSigner",
      "outputs": [
        {
          "name": "",
          "type": "address"
        },
        {
          "name": "",
          "type": "bool"
        }
      ],
      "payable": false,
      "stateMutability": "view",
      "type": "function"
    },
    {
      "constant": true,
      "inputs": [],
      "name": "getSender",
      "outputs": [
        {
          "name": "",
          "type": "address"
        }
      ],
      "payable": false,
      "stateMutability": "view",
      "type": "function"
    },
    {
      "constant": false,
      "inputs": [
        {
          "name": "_admin",
          "type": "address"
        }
      ],
      "name": "addAdmin",
      "outputs": [
        {
          "name": "",
          "type": "bool"
        }
      ],
      "payable": false,
      "stateMutability": "nonpayable",
      "type": "function"
    },
    {
      "constant": false,
      "inputs": [
        {
          "name": "_owner",
          "type": "address"
        }
      ],
      "name": "addOwner",
      "outputs": [
        {
          "name": "",
          "type": "bool"
        }
      ],
      "payable": false,
      "stateMutability": "nonpayable",
      "type": "function"
    },
    {
      "constant": true,
      "inputs": [],
      "name": "getOwnersCount",
      "outputs": [
        {
          "name": "",
          "type": "uint256"
        }
      ],
      "payable": false,
      "stateMutability": "view",
      "type": "function"
    },
    {
      "constant": true,
      "inputs": [
        {
          "name": "_escrowId",
          "type": "uint256"
        }
      ],
      "name": "getEscrow",
      "outputs": [
        {
          "name": "client",
          "type": "address"
        },
        {
          "name": "provider",
          "type": "address"
        },
        {
          "name": "amount",
          "type": "uint256"
        },
        {
          "name": "status",
          "type": "uint8"
        },
        {
          "name": "createdAt",
          "type": "uint256"
        },
        {
          "name": "closedAt",
          "type": "uint256"
        },
        {
          "name": "paidToProviderAmount",
          "type": "uint256"
        }
      ],
      "payable": false,
      "stateMutability": "view",
      "type": "function"
    },
    {
      "constant": true,
      "inputs": [
        {
          "name": "contractName",
          "type": "string"
        },
        {
          "name": "migrationId",
          "type": "string"
        }
      ],
      "name": "isMigrated",
      "outputs": [
        {
          "name": "",
          "type": "bool"
        }
      ],
      "payable": false,
      "stateMutability": "view",
      "type": "function"
    },
    {
      "constant": true,
      "inputs": [
        {
          "name": "index",
          "type": "uint256"
        }
      ],
      "name": "getOwner",
      "outputs": [
        {
          "name": "",
          "type": "address"
        },
        {
          "name": "",
          "type": "bool"
        }
      ],
      "payable": false,
      "stateMutability": "view",
      "type": "function"
    },
    {
      "constant": true,
      "inputs": [
        {
          "name": "roleName",
          "type": "string"
        }
      ],
      "name": "size",
      "outputs": [
        {
          "name": "",
          "type": "uint256"
        }
      ],
      "payable": false,
      "stateMutability": "view",
      "type": "function"
    },
    {
      "constant": true,
      "inputs": [],
      "name": "getAdminsCount",
      "outputs": [
        {
          "name": "",
          "type": "uint256"
        }
      ],
      "payable": false,
      "stateMutability": "view",
      "type": "function"
    },
    {
      "constant": true,
      "inputs": [
        {
          "name": "_escrowId",
          "type": "uint256"
        }
      ],
      "name": "getEscrowPayments",
      "outputs": [
        {
          "name": "status",
          "type": "uint8"
        },
        {
          "name": "amount",
          "type": "uint256"
        },
        {
          "name": "paidToDappAmount",
          "type": "uint256"
        },
        {
          "name": "paidToProviderAmount",
          "type": "uint256"
        },
        {
          "name": "paidToClientAmount",
          "type": "uint256"
        },
        {
          "name": "paidToArbiterAmount",
          "type": "uint256"
        }
      ],
      "payable": false,
      "stateMutability": "view",
      "type": "function"
    },
    {
      "anonymous": false,
      "inputs": [
        {
          "indexed": true,
          "name": "dapp",
          "type": "address"
        },
        {
          "indexed": true,
          "name": "jobId",
          "type": "bytes32"
        },
        {
          "indexed": false,
          "name": "client",
          "type": "address"
        },
        {
          "indexed": true,
          "name": "provider",
          "type": "address"
        },
        {
          "indexed": false,
          "name": "totalCosts",
          "type": "uint256"
        }
      ],
      "name": "OnCreateJob",
      "type": "event"
    },
    {
      "anonymous": false,
      "inputs": [
        {
          "indexed": true,
          "name": "dapp",
          "type": "address"
        },
        {
          "indexed": true,
          "name": "jobId",
          "type": "bytes32"
        }
      ],
      "name": "OnCompleteJob",
      "type": "event"
    },
    {
      "anonymous": false,
      "inputs": [
        {
          "indexed": true,
          "name": "dapp",
          "type": "address"
        },
        {
          "indexed": true,
          "name": "jobId",
          "type": "bytes32"
        }
      ],
      "name": "OnCancelJobByProvider",
      "type": "event"
    },
    {
      "anonymous": false,
      "inputs": [
        {
          "indexed": true,
          "name": "dapp",
          "type": "address"
        },
        {
          "indexed": true,
          "name": "jobId",
          "type": "bytes32"
        },
        {
          "indexed": false,
          "name": "payToProviderAmount",
          "type": "uint256"
        },
        {
          "indexed": true,
          "name": "arbiter",
          "type": "address"
        },
        {
          "indexed": false,
          "name": "payToArbiterAmount",
          "type": "uint256"
        }
      ],
      "name": "OnCancelJobByAdmin",
      "type": "event"
    },
    {
      "anonymous": false,
      "inputs": [
        {
          "indexed": true,
          "name": "toAddress",
          "type": "address"
        },
        {
          "indexed": false,
          "name": "balance",
          "type": "uint256"
        }
      ],
      "name": "OnEmeregencyTransfer",
      "type": "event"
    },
    {
      "anonymous": false,
      "inputs": [
        {
          "indexed": false,
          "name": "percentage",
          "type": "uint8"
        }
      ],
      "name": "OnSetCanWorkPaymentPercentage",
      "type": "event"
    },
    {
      "anonymous": false,
      "inputs": [
        {
          "indexed": true,
          "name": "token",
          "type": "address"
        },
        {
          "indexed": true,
          "name": "dApp",
          "type": "address"
        }
      ],
      "name": "OnInitialize",
      "type": "event"
    },
    {
      "anonymous": false,
      "inputs": [
        {
          "indexed": true,
          "name": "dapp",
          "type": "address"
        },
        {
          "indexed": true,
          "name": "client",
          "type": "address"
        },
        {
          "indexed": true,
          "name": "provider",
          "type": "address"
        },
        {
          "indexed": false,
          "name": "amount",
          "type": "uint256"
        },
        {
          "indexed": false,
          "name": "payToDappAmount",
          "type": "uint256"
        }
      ],
      "name": "OnCreateEscrow",
      "type": "event"
    },
    {
      "anonymous": false,
      "inputs": [
        {
          "indexed": true,
          "name": "dapp",
          "type": "address"
        },
        {
          "indexed": true,
          "name": "escrowId",
          "type": "uint256"
        }
      ],
      "name": "OnCompleteEscrow",
      "type": "event"
    },
    {
      "anonymous": false,
      "inputs": [
        {
          "indexed": true,
          "name": "dapp",
          "type": "address"
        },
        {
          "indexed": true,
          "name": "escrowId",
          "type": "uint256"
        }
      ],
      "name": "OnCancelEscrowByProvider",
      "type": "event"
    },
    {
      "anonymous": false,
      "inputs": [
        {
          "indexed": true,
          "name": "dapp",
          "type": "address"
        },
        {
          "indexed": true,
          "name": "escrowId",
          "type": "uint256"
        },
        {
          "indexed": false,
          "name": "payToProviderAmount",
          "type": "uint256"
        },
        {
          "indexed": true,
          "name": "arbiter",
          "type": "address"
        },
        {
          "indexed": false,
          "name": "payToArbiterAmount",
          "type": "uint256"
        }
      ],
      "name": "OnCancelEscrow",
      "type": "event"
    },
    {
      "anonymous": false,
      "inputs": [
        {
          "indexed": false,
          "name": "contractName",
          "type": "string"
        },
        {
          "indexed": false,
          "name": "migrationId",
          "type": "string"
        }
      ],
      "name": "Migrated",
      "type": "event"
    },
    {
      "anonymous": false,
      "inputs": [
        {
          "indexed": false,
          "name": "addr",
          "type": "address"
        },
        {
          "indexed": false,
          "name": "roleName",
          "type": "string"
        }
      ],
      "name": "RoleAdded",
      "type": "event"
    },
    {
      "anonymous": false,
      "inputs": [
        {
          "indexed": false,
          "name": "addr",
          "type": "address"
        },
        {
          "indexed": false,
          "name": "roleName",
          "type": "string"
        }
      ],
      "name": "RoleRemoved",
      "type": "event"
    },
    {
      "constant": false,
      "inputs": [
        {
          "name": "_token",
          "type": "address"
        },
        {
          "name": "_dApp",
          "type": "address"
        },
        {
          "name": "_owner1",
          "type": "address"
        },
        {
          "name": "_owner2",
          "type": "address"
        },
        {
          "name": "_owner3",
          "type": "address"
        }
      ],
      "name": "initialize",
      "outputs": [],
      "payable": false,
      "stateMutability": "nonpayable",
      "type": "function"
    },
    {
      "constant": false,
      "inputs": [
        {
          "name": "_token",
          "type": "address"
        },
        {
          "name": "initialOwner1",
          "type": "address"
        },
        {
          "name": "initialOwner2",
          "type": "address"
        },
        {
          "name": "initialOwner3",
          "type": "address"
        }
      ],
      "name": "initialize",
      "outputs": [],
      "payable": false,
      "stateMutability": "nonpayable",
      "type": "function"
    },
    {
      "constant": false,
      "inputs": [
        {
          "name": "_jobId",
          "type": "bytes32"
        },
        {
          "name": "_client",
          "type": "address"
        },
        {
          "name": "_provider",
          "type": "address"
        },
        {
          "name": "_totalCosts",
          "type": "uint256"
        }
      ],
      "name": "createJob",
      "outputs": [
        {
          "name": "",
          "type": "bool"
        }
      ],
      "payable": false,
      "stateMutability": "nonpayable",
      "type": "function"
    },
    {
      "constant": false,
      "inputs": [
        {
          "name": "_jobId",
          "type": "bytes32"
        }
      ],
      "name": "completeJob",
      "outputs": [
        {
          "name": "",
          "type": "bool"
        }
      ],
      "payable": false,
      "stateMutability": "nonpayable",
      "type": "function"
    },
    {
      "constant": false,
      "inputs": [
        {
          "name": "_jobId",
          "type": "bytes32"
        }
      ],
      "name": "cancelJobByProvider",
      "outputs": [
        {
          "name": "",
          "type": "bool"
        }
      ],
      "payable": false,
      "stateMutability": "nonpayable",
      "type": "function"
    },
    {
      "constant": false,
      "inputs": [
        {
          "name": "_jobId",
          "type": "bytes32"
        },
        {
          "name": "_payToProviderAmount",
          "type": "uint256"
        },
        {
          "name": "_arbiter",
          "type": "address"
        },
        {
          "name": "_payToArbiterAmount",
          "type": "uint256"
        }
      ],
      "name": "cancelJobByAdmin",
      "outputs": [
        {
          "name": "",
          "type": "bool"
        }
      ],
      "payable": false,
      "stateMutability": "nonpayable",
      "type": "function"
    },
    {
      "constant": true,
      "inputs": [
        {
          "name": "_jobId",
          "type": "bytes32"
        }
      ],
      "name": "getJob",
      "outputs": [
        {
          "name": "client",
          "type": "address"
        },
        {
          "name": "provider",
          "type": "address"
        },
        {
          "name": "amount",
          "type": "uint256"
        },
        {
          "name": "status",
          "type": "uint8"
        },
        {
          "name": "createdAt",
          "type": "uint256"
        },
        {
          "name": "closedAt",
          "type": "uint256"
        },
        {
          "name": "paidToProviderAmount",
          "type": "uint256"
        }
      ],
      "payable": false,
      "stateMutability": "view",
      "type": "function"
    },
    {
      "constant": true,
      "inputs": [
        {
          "name": "_jobId",
          "type": "bytes32"
        }
      ],
      "name": "getJobPayments",
      "outputs": [
        {
          "name": "status",
          "type": "uint8"
        },
        {
          "name": "amount",
          "type": "uint256"
        },
        {
          "name": "paidToDappAmount",
          "type": "uint256"
        },
        {
          "name": "paidToProviderAmount",
          "type": "uint256"
        },
        {
          "name": "paidToClientAmount",
          "type": "uint256"
        },
        {
          "name": "paidToArbiterAmount",
          "type": "uint256"
        }
      ],
      "payable": false,
      "stateMutability": "view",
      "type": "function"
    }
  ],
  "bytecode": "0x6080604052600060045534801561001557600080fd5b506159e780620000266000396000f300608060405260043610610175576000357c0100000000000000000000000000000000000000000000000000000000900463ffffffff1680630988ca8c1461017a5780630e50183414610203578063111fd88b1461025e5780631459457a146102d6578063173825d9146103995780631785f53c146103f45780631be5e7ed1461044f578063217fe6c61461050d5780632424f9ca146105ae57806338cc48311461061357806341defd821461066a5780634b9dce0d146106e7578063593c1acb1461072f5780635e01eb5a146107d55780636e6bfca01461082c57806370480275146108755780637065cb48146108d057806373ff81cc1461092b5780637d19e59614610956578063991e013914610a1f578063afcfad6e14610a68578063c0bac1a814610ad6578063c41a360a14610b9d578063ce86990314610c15578063e7acaa1e14610c92578063e804152214610d25578063f729cf0d14610d50578063f8c8765e14610e1d578063fd232b5914610ec0575b600080fd5b34801561018657600080fd5b50610201600480360381019080803573ffffffffffffffffffffffffffffffffffffffff169060200190929190803590602001908201803590602001908080601f0160208091040260200160405190810160405280939291908181526020018383808284378201915050505050509192919290505050610f2a565b005b34801561020f57600080fd5b50610244600480360381019080803573ffffffffffffffffffffffffffffffffffffffff169060200190929190505050610fab565b604051808215151515815260200191505060405180910390f35b34801561026a57600080fd5b50610289600480360381019080803590602001909291905050506113e9565b604051808373ffffffffffffffffffffffffffffffffffffffff1673ffffffffffffffffffffffffffffffffffffffff168152602001821515151581526020019250505060405180910390f35b3480156102e257600080fd5b50610397600480360381019080803573ffffffffffffffffffffffffffffffffffffffff169060200190929190803573ffffffffffffffffffffffffffffffffffffffff169060200190929190803573ffffffffffffffffffffffffffffffffffffffff169060200190929190803573ffffffffffffffffffffffffffffffffffffffff169060200190929190803573ffffffffffffffffffffffffffffffffffffffff169060200190929190505050611434565b005b3480156103a557600080fd5b506103da600480360381019080803573ffffffffffffffffffffffffffffffffffffffff16906020019092919050505061182c565b604051808215151515815260200191505060405180910390f35b34801561040057600080fd5b50610435600480360381019080803573ffffffffffffffffffffffffffffffffffffffff169060200190929190505050611aa7565b604051808215151515815260200191505060405180910390f35b34801561045b57600080fd5b506104c0600480360381019080803590602001908201803590602001908080601f016020809104026020016040519081016040528093929190818152602001838380828437820191505050505050919291929080359060200190929190505050611bb8565b604051808373ffffffffffffffffffffffffffffffffffffffff1673ffffffffffffffffffffffffffffffffffffffff168152602001821515151581526020019250505060405180910390f35b34801561051957600080fd5b50610594600480360381019080803573ffffffffffffffffffffffffffffffffffffffff169060200190929190803590602001908201803590602001908080601f0160208091040260200160405190810160405280939291908181526020018383808284378201915050505050509192919290505050611c43565b604051808215151515815260200191505060405180910390f35b3480156105ba57600080fd5b506105fd6004803603810190808035600019169060200190929190803573ffffffffffffffffffffffffffffffffffffffff169060200190929190505050611cca565b6040518082815260200191505060405180910390f35b34801561061f57600080fd5b50610628611df4565b604051808273ffffffffffffffffffffffffffffffffffffffff1673ffffffffffffffffffffffffffffffffffffffff16815260200191505060405180910390f35b34801561067657600080fd5b506106cd600480360381019080803560001916906020019092919080359060200190929190803573ffffffffffffffffffffffffffffffffffffffff16906020019092919080359060200190929190505050611dfc565b604051808215151515815260200191505060405180910390f35b3480156106f357600080fd5b50610715600480360381019080803560ff169060200190929190505050612081565b604051808215151515815260200191505060405180910390f35b34801561073b57600080fd5b506107886004803603810190808035600019169060200190929190803573ffffffffffffffffffffffffffffffffffffffff16906020019092919080359060200190929190505050612148565b604051808373ffffffffffffffffffffffffffffffffffffffff1673ffffffffffffffffffffffffffffffffffffffff168152602001821515151581526020019250505060405180910390f35b3480156107e157600080fd5b506107ea612276565b604051808273ffffffffffffffffffffffffffffffffffffffff1673ffffffffffffffffffffffffffffffffffffffff16815260200191505060405180910390f35b34801561083857600080fd5b5061085b600480360381019080803560001916906020019092919050505061227e565b604051808215151515815260200191505060405180910390f35b34801561088157600080fd5b506108b6600480360381019080803573ffffffffffffffffffffffffffffffffffffffff1690602001909291905050506124b1565b604051808215151515815260200191505060405180910390f35b3480156108dc57600080fd5b50610911600480360381019080803573ffffffffffffffffffffffffffffffffffffffff1690602001909291905050506125c3565b604051808215151515815260200191505060405180910390f35b34801561093757600080fd5b5061094061283f565b6040518082815260200191505060405180910390f35b34801561096257600080fd5b5061098160048036038101908080359060200190929190505050612884565b604051808873ffffffffffffffffffffffffffffffffffffffff1673ffffffffffffffffffffffffffffffffffffffff1681526020018773ffffffffffffffffffffffffffffffffffffffff1673ffffffffffffffffffffffffffffffffffffffff1681526020018681526020018560ff1660ff16815260200184815260200183815260200182815260200197505050505050505060405180910390f35b348015610a2b57600080fd5b50610a4e60048036038101908080356000191690602001909291905050506129d1565b604051808215151515815260200191505060405180910390f35b348015610a7457600080fd5b50610a976004803603810190808035600019169060200190929190505050612c04565b604051808760ff1660ff168152602001868152602001858152602001848152602001838152602001828152602001965050505050505060405180910390f35b348015610ae257600080fd5b50610b83600480360381019080803590602001908201803590602001908080601f0160208091040260200160405190810160405280939291908181526020018383808284378201915050505050509192919290803590602001908201803590602001908080601f0160208091040260200160405190810160405280939291908181526020018383808284378201915050505050509192919290505050612d71565b604051808215151515815260200191505060405180910390f35b348015610ba957600080fd5b50610bc860048036038101908080359060200190929190505050612e5d565b604051808373ffffffffffffffffffffffffffffffffffffffff1673ffffffffffffffffffffffffffffffffffffffff168152602001821515151581526020019250505060405180910390f35b348015610c2157600080fd5b50610c7c600480360381019080803590602001908201803590602001908080601f0160208091040260200160405190810160405280939291908181526020018383808284378201915050505050509192919290505050612ea8565b6040518082815260200191505060405180910390f35b348015610c9e57600080fd5b50610d0b6004803603810190808035600019169060200190929190803573ffffffffffffffffffffffffffffffffffffffff169060200190929190803573ffffffffffffffffffffffffffffffffffffffff16906020019092919080359060200190929190505050612f24565b604051808215151515815260200191505060405180910390f35b348015610d3157600080fd5b50610d3a6132c7565b6040518082815260200191505060405180910390f35b348015610d5c57600080fd5b50610d7f600480360381019080803560001916906020019092919050505061330c565b604051808873ffffffffffffffffffffffffffffffffffffffff1673ffffffffffffffffffffffffffffffffffffffff1681526020018773ffffffffffffffffffffffffffffffffffffffff1673ffffffffffffffffffffffffffffffffffffffff1681526020018681526020018560ff1660ff16815260200184815260200183815260200182815260200197505050505050505060405180910390f35b348015610e2957600080fd5b50610ebe600480360381019080803573ffffffffffffffffffffffffffffffffffffffff169060200190929190803573ffffffffffffffffffffffffffffffffffffffff169060200190929190803573ffffffffffffffffffffffffffffffffffffffff169060200190929190803573ffffffffffffffffffffffffffffffffffffffff16906020019092919050505061347e565b005b348015610ecc57600080fd5b50610eeb600480360381019080803590602001909291905050506138ff565b604051808760ff1660ff168152602001868152602001858152602001848152602001838152602001828152602001965050505050505060405180910390f35b610fa7826001836040518082805190602001908083835b602083101515610f665780518252602082019150602081019050602083039250610f41565b6001836020036101000a03801982511681845116808217855250505050505090500191505090815260200160405180910390206139f090919063ffffffff16565b5050565b60008060006040805190810160405280600581526020017f6f776e6572000000000000000000000000000000000000000000000000000000815250610ff03382610f2a565b600073ffffffffffffffffffffffffffffffffffffffff168573ffffffffffffffffffffffffffffffffffffffff161415151561102c57600080fd5b3085604051602001808373ffffffffffffffffffffffffffffffffffffffff1673ffffffffffffffffffffffffffffffffffffffff166c010000000000000000000000000281526014018273ffffffffffffffffffffffffffffffffffffffff1673ffffffffffffffffffffffffffffffffffffffff166c01000000000000000000000000028152601401807f656d657267656e63795472616e73666572000000000000000000000000000000815250601101925050506040516020818303038152906040526040518082805190602001908083835b6020831015156111275780518252602082019150602081019050602083039250611102565b6001836020036101000a03801982511681845116808217855250505050505090500191505060405180910390209250600261116184613a09565b60ff16101561117e576111743384613a3d565b50600093506113e1565b6111883384613a3d565b5061119283613c65565b50600760019054906101000a900473ffffffffffffffffffffffffffffffffffffffff1673ffffffffffffffffffffffffffffffffffffffff166370a08231306040518263ffffffff167c0100000000000000000000000000000000000000000000000000000000028152600401808273ffffffffffffffffffffffffffffffffffffffff1673ffffffffffffffffffffffffffffffffffffffff168152602001915050602060405180830381600087803b15801561125057600080fd5b505af1158015611264573d6000803e3d6000fd5b505050506040513d602081101561127a57600080fd5b81019080805190602001909291905050509150600760019054906101000a900473ffffffffffffffffffffffffffffffffffffffff1673ffffffffffffffffffffffffffffffffffffffff1663a9059cbb86846040518363ffffffff167c0100000000000000000000000000000000000000000000000000000000028152600401808373ffffffffffffffffffffffffffffffffffffffff1673ffffffffffffffffffffffffffffffffffffffff16815260200182815260200192505050602060405180830381600087803b15801561135257600080fd5b505af1158015611366573d6000803e3d6000fd5b505050506040513d602081101561137c57600080fd5b8101908080519060200190929190505050508473ffffffffffffffffffffffffffffffffffffffff167fd52f490db8aced6e82c33e39d01bca1886f5e9579c9e3347e8a89d60ad39bb09836040518082815260200191505060405180910390a2600193505b505050919050565b60008061142b6040805190810160405280600581526020017f61646d696e00000000000000000000000000000000000000000000000000000081525084611bb8565b91509150915091565b6040805190810160405280600a81526020017f43616e576f726b4a6f62000000000000000000000000000000000000000000008152506040805190810160405280600581526020017f302e312e340000000000000000000000000000000000000000000000000000008152506114aa8282612d71565b1515156114b657600080fd5b600073ffffffffffffffffffffffffffffffffffffffff168773ffffffffffffffffffffffffffffffffffffffff16141580156115205750600073ffffffffffffffffffffffffffffffffffffffff168673ffffffffffffffffffffffffffffffffffffffff1614155b80156115595750600073ffffffffffffffffffffffffffffffffffffffff168573ffffffffffffffffffffffffffffffffffffffff1614155b80156115925750600073ffffffffffffffffffffffffffffffffffffffff168473ffffffffffffffffffffffffffffffffffffffff1614155b80156115cb5750600073ffffffffffffffffffffffffffffffffffffffff168373ffffffffffffffffffffffffffffffffffffffff1614155b15156115d657600080fd5b85600960006101000a81548173ffffffffffffffffffffffffffffffffffffffff021916908373ffffffffffffffffffffffffffffffffffffffff1602179055506116218787613daf565b61162d8786868661347e565b7fdd117a11c22118c9dee4b5a67ce578bc44529dce21ee0ccc439588fbb9fb4ea38282604051808060200180602001838103835285818151815260200191508051906020019080838360005b83811015611694578082015181840152602081019050611679565b50505050905090810190601f1680156116c15780820380516001836020036101000a031916815260200191505b50838103825284818151815260200191508051906020019080838360005b838110156116fa5780820151818401526020810190506116df565b50505050905090810190601f1680156117275780820380516001836020036101000a031916815260200191505b5094505050505060405180910390a160016002836040518082805190602001908083835b602083101515611770578051825260208201915060208101905060208303925061174b565b6001836020036101000a0380198251168184511680821785525050505050509050019150509081526020016040518091039020826040518082805190602001908083835b6020831015156117d957805182526020820191506020810190506020830392506117b4565b6001836020036101000a038019825116818451168082178552505050505050905001915050908152602001604051809103902060006101000a81548160ff02191690831515021790555050505050505050565b6000806040805190810160405280600581526020017f6f776e657200000000000000000000000000000000000000000000000000000081525061186f3382610f2a565b600073ffffffffffffffffffffffffffffffffffffffff168473ffffffffffffffffffffffffffffffffffffffff16141515156118ab57600080fd5b6118ea846040805190810160405280600581526020017f6f776e6572000000000000000000000000000000000000000000000000000000815250611c43565b15156118f557600080fd5b3084604051602001808373ffffffffffffffffffffffffffffffffffffffff1673ffffffffffffffffffffffffffffffffffffffff166c010000000000000000000000000281526014018273ffffffffffffffffffffffffffffffffffffffff1673ffffffffffffffffffffffffffffffffffffffff166c01000000000000000000000000028152601401807f72656d6f76654f776e6572000000000000000000000000000000000000000000815250600b01925050506040516020818303038152906040526040518082805190602001908083835b6020831015156119f057805182526020820191506020810190506020830392506119cb565b6001836020036101000a038019825116818451168082178552505050505050905001915050604051809103902091506002611a2a83613a09565b60ff161015611a4757611a3d3383613a3d565b5060009250611aa0565b611a513383613a3d565b50611a5b82613c65565b50611a9b846040805190810160405280600581526020017f6f776e657200000000000000000000000000000000000000000000000000000081525061417e565b600192505b5050919050565b60006040805190810160405280600581526020017f6f776e6572000000000000000000000000000000000000000000000000000000815250611ae93382610f2a565b600073ffffffffffffffffffffffffffffffffffffffff168373ffffffffffffffffffffffffffffffffffffffff1614151515611b2557600080fd5b611b64836040805190810160405280600581526020017f61646d696e000000000000000000000000000000000000000000000000000000815250611c43565b1515611b6f57600080fd5b611bae836040805190810160405280600581526020017f61646d696e00000000000000000000000000000000000000000000000000000081525061417e565b6001915050919050565b600080611c38836001866040518082805190602001908083835b602083101515611bf75780518252602082019150602081019050602083039250611bd2565b6001836020036101000a03801982511681845116808217855250505050505090500191505090815260200160405180910390206142cf90919063ffffffff16565b915091509250929050565b6000611cc2836001846040518082805190602001908083835b602083101515611c815780518252602082019150602081019050602083039250611c5c565b6001836020036101000a038019825116818451168082178552505050505050905001915050908152602001604051809103902061437190919063ffffffff16565b905092915050565b600080308385604051602001808473ffffffffffffffffffffffffffffffffffffffff1673ffffffffffffffffffffffffffffffffffffffff166c010000000000000000000000000281526014018373ffffffffffffffffffffffffffffffffffffffff1673ffffffffffffffffffffffffffffffffffffffff166c01000000000000000000000000028152601401826000191660001916815260200193505050506040516020818303038152906040526040518082805190602001908083835b602083101515611db05780518252602082019150602081019050602083039250611d8b565b6001836020036101000a03801982511681845116808217855250505050505090500191505060405180910390209050611de881613a09565b60ff1691505092915050565b600030905090565b6000806040805190810160405280600581526020017f61646d696e000000000000000000000000000000000000000000000000000000815250611e3f3382610f2a565b60007f010000000000000000000000000000000000000000000000000000000000000002876000602081101515611e7257fe5b1a7f0100000000000000000000000000000000000000000000000000000000000000027effffffffffffffffffffffffffffffffffffffffffffffffffffffffffffff191614151515611ec457600080fd5b60006002811115611ed157fe5b60086000896000191660001916815260200190815260200160002060040160009054906101000a900460ff166002811115611f0857fe5b141515611f1457600080fd5b611f596064611f4b6005600860008c60001916600019168152602001908152602001600020600501546143cd90919063ffffffff16565b61440590919063ffffffff16565b9150818411151515611f6a57600080fd5b611f946008600089600019166000191681526020019081526020016000206003015487878761441b565b1515611f9f57600080fd5b600260086000896000191660001916815260200190815260200160002060040160006101000a81548160ff02191690836002811115611fda57fe5b02179055508473ffffffffffffffffffffffffffffffffffffffff168760001916600960009054906101000a900473ffffffffffffffffffffffffffffffffffffffff1673ffffffffffffffffffffffffffffffffffffffff167f9718f646cc6091a3c9858b508924d4fb6e582b56f9de81537654a535d65cf6328988604051808381526020018281526020019250505060405180910390a4600192505050949350505050565b60006040805190810160405280600581526020017f6f776e65720000000000000000000000000000000000000000000000000000008152506120c33382610f2a565b60008360ff16101580156120db575060648360ff1611155b15156120e657600080fd5b82600760006101000a81548160ff021916908360ff1602179055507fdf97dce213cb49878ba72da3d4ab99c33bb8c26f21ed267e55de74c4a5a6cb9983604051808260ff1660ff16815260200191505060405180910390a16001915050919050565b6000806000308587604051602001808473ffffffffffffffffffffffffffffffffffffffff1673ffffffffffffffffffffffffffffffffffffffff166c010000000000000000000000000281526014018373ffffffffffffffffffffffffffffffffffffffff1673ffffffffffffffffffffffffffffffffffffffff166c01000000000000000000000000028152601401826000191660001916815260200193505050506040516020818303038152906040526040518082805190602001908083835b602083101515612230578051825260208201915060208101905060208303925061220b565b6001836020036101000a038019825116818451168082178552505050505050905001915050604051809103902090506122698185614a9b565b9250925050935093915050565b600033905090565b6000807f0100000000000000000000000000000000000000000000000000000000000000028260006020811015156122b257fe5b1a7f0100000000000000000000000000000000000000000000000000000000000000027effffffffffffffffffffffffffffffffffffffffffffffffffffffffffffff19161415151561230457600080fd5b6000600281111561231157fe5b60086000846000191660001916815260200190815260200160002060040160009054906101000a900460ff16600281111561234857fe5b14151561235457600080fd5b3373ffffffffffffffffffffffffffffffffffffffff1660086000846000191660001916815260200190815260200160002060020160009054906101000a900473ffffffffffffffffffffffffffffffffffffffff1673ffffffffffffffffffffffffffffffffffffffff161415156123cc57600080fd5b6123f360086000846000191660001916815260200190815260200160002060030154614b6c565b15156123fe57600080fd5b600260086000846000191660001916815260200190815260200160002060040160006101000a81548160ff0219169083600281111561243957fe5b02179055508160001916600960009054906101000a900473ffffffffffffffffffffffffffffffffffffffff1673ffffffffffffffffffffffffffffffffffffffff167f9deeb35dcae810f88ff11beec766eaa1b2e9f1ef7bcefbb8f2a3f91fdf98c42660405160405180910390a360019050919050565b60006040805190810160405280600581526020017f6f776e65720000000000000000000000000000000000000000000000000000008152506124f33382610f2a565b600073ffffffffffffffffffffffffffffffffffffffff168373ffffffffffffffffffffffffffffffffffffffff161415151561252f57600080fd5b61256e836040805190810160405280600581526020017f61646d696e000000000000000000000000000000000000000000000000000000815250611c43565b15151561257a57600080fd5b6125b9836040805190810160405280600581526020017f61646d696e000000000000000000000000000000000000000000000000000000815250614e97565b6001915050919050565b6000806040805190810160405280600581526020017f6f776e65720000000000000000000000000000000000000000000000000000008152506126063382610f2a565b600073ffffffffffffffffffffffffffffffffffffffff168473ffffffffffffffffffffffffffffffffffffffff161415151561264257600080fd5b612681846040805190810160405280600581526020017f6f776e6572000000000000000000000000000000000000000000000000000000815250611c43565b15151561268d57600080fd5b3084604051602001808373ffffffffffffffffffffffffffffffffffffffff1673ffffffffffffffffffffffffffffffffffffffff166c010000000000000000000000000281526014018273ffffffffffffffffffffffffffffffffffffffff1673ffffffffffffffffffffffffffffffffffffffff166c01000000000000000000000000028152601401807f6164644f776e6572000000000000000000000000000000000000000000000000815250600801925050506040516020818303038152906040526040518082805190602001908083835b6020831015156127885780518252602082019150602081019050602083039250612763565b6001836020036101000a0380198251168184511680821785525050505050509050019150506040518091039020915060026127c283613a09565b60ff1610156127df576127d53383613a3d565b5060009250612838565b6127e93383613a3d565b506127f382613c65565b50612833846040805190810160405280600581526020017f6f776e6572000000000000000000000000000000000000000000000000000000815250614e97565b600192505b5050919050565b600061287f6040805190810160405280600581526020017f6f776e6572000000000000000000000000000000000000000000000000000000815250612ea8565b905090565b600080600080600080600080881180156128b457506000600660008a815260200190815260200160002060050154115b15156128bf57600080fd5b6006600089815260200190815260200160002060010160009054906101000a900473ffffffffffffffffffffffffffffffffffffffff16600660008a815260200190815260200160002060020160009054906101000a900473ffffffffffffffffffffffffffffffffffffffff16600660008b815260200190815260200160002060030154600660008c815260200190815260200160002060040160009054906101000a900460ff16600281111561297357fe5b600660008d815260200190815260200160002060050154600660008e815260200190815260200160002060060154600660008f8152602001908152602001600020600801549650965096509650965096509650919395979092949650565b6000807f010000000000000000000000000000000000000000000000000000000000000002826000602081101515612a0557fe5b1a7f0100000000000000000000000000000000000000000000000000000000000000027effffffffffffffffffffffffffffffffffffffffffffffffffffffffffffff191614151515612a5757600080fd5b60006002811115612a6457fe5b60086000846000191660001916815260200190815260200160002060040160009054906101000a900460ff166002811115612a9b57fe5b141515612aa757600080fd5b3373ffffffffffffffffffffffffffffffffffffffff1660086000846000191660001916815260200190815260200160002060010160009054906101000a900473ffffffffffffffffffffffffffffffffffffffff1673ffffffffffffffffffffffffffffffffffffffff16141515612b1f57600080fd5b612b4660086000846000191660001916815260200190815260200160002060030154614ffe565b1515612b5157600080fd5b600160086000846000191660001916815260200190815260200160002060040160006101000a81548160ff02191690836002811115612b8c57fe5b02179055508160001916600960009054906101000a900473ffffffffffffffffffffffffffffffffffffffff1673ffffffffffffffffffffffffffffffffffffffff167f5fa8e6f4fbdedc8f67f68ed5dd5a194353476578eb9231d8925543e55fec008a60405160405180910390a360019050919050565b60008060008060008060007f010000000000000000000000000000000000000000000000000000000000000002876000602081101515612c4057fe5b1a7f0100000000000000000000000000000000000000000000000000000000000000027effffffffffffffffffffffffffffffffffffffffffffffffffffffffffffff191614151515612c9257600080fd5b60007f010000000000000000000000000000000000000000000000000000000000000002600860008960001916600019168152602001908152602001600020600001546000602081101515612ce357fe5b1a7f0100000000000000000000000000000000000000000000000000000000000000027effffffffffffffffffffffffffffffffffffffffffffffffffffffffffffff191614151515612d3557600080fd5b612d5c600860008960001916600019168152602001908152602001600020600301546138ff565b95509550955095509550955091939550919395565b60006002836040518082805190602001908083835b602083101515612dab5780518252602082019150602081019050602083039250612d86565b6001836020036101000a0380198251168184511680821785525050505050509050019150509081526020016040518091039020826040518082805190602001908083835b602083101515612e145780518252602082019150602081019050602083039250612def565b6001836020036101000a038019825116818451168082178552505050505050905001915050908152602001604051809103902060009054906101000a900460ff16905092915050565b600080612e9f6040805190810160405280600581526020017f6f776e657200000000000000000000000000000000000000000000000000000081525084611bb8565b91509150915091565b6000612f1d6001836040518082805190602001908083835b602083101515612ee55780518252602082019150602081019050602083039250612ec0565b6001836020036101000a0380198251168184511680821785525050505050509050019150509081526020016040518091039020615329565b9050919050565b60008060007f010000000000000000000000000000000000000000000000000000000000000002866000602081101515612f5a57fe5b1a7f0100000000000000000000000000000000000000000000000000000000000000027effffffffffffffffffffffffffffffffffffffffffffffffffffffffffffff191614151515612fac57600080fd5b60007f010000000000000000000000000000000000000000000000000000000000000002600860008860001916600019168152602001908152602001600020600001546000602081101515612ffd57fe5b1a7f0100000000000000000000000000000000000000000000000000000000000000027effffffffffffffffffffffffffffffffffffffffffffffffffffffffffffff191614151561304e57600080fd5b6130866064613078600760009054906101000a900460ff1660ff16866143cd90919063ffffffff16565b61440590919063ffffffff16565b90508560086000886000191660001916815260200190815260200160002060000181600019169055508460086000886000191660001916815260200190815260200160002060010160006101000a81548173ffffffffffffffffffffffffffffffffffffffff021916908373ffffffffffffffffffffffffffffffffffffffff1602179055508360086000886000191660001916815260200190815260200160002060020160006101000a81548173ffffffffffffffffffffffffffffffffffffffff021916908373ffffffffffffffffffffffffffffffffffffffff160217905550600060086000886000191660001916815260200190815260200160002060040160006101000a81548160ff021916908360028111156131a457fe5b021790555082600860008860001916600019168152602001908152602001600020600501819055506131d88585858461533a565b600860008860001916600019168152602001908152602001600020600301819055508373ffffffffffffffffffffffffffffffffffffffff168660001916600960009054906101000a900473ffffffffffffffffffffffffffffffffffffffff1673ffffffffffffffffffffffffffffffffffffffff167f06ec2805bab16df077e1bf66c474762caec30f56f6c01e4e673aa60b8dca979e8887604051808373ffffffffffffffffffffffffffffffffffffffff1673ffffffffffffffffffffffffffffffffffffffff1681526020018281526020019250505060405180910390a46001915050949350505050565b60006133076040805190810160405280600581526020017f61646d696e000000000000000000000000000000000000000000000000000000815250612ea8565b905090565b6000806000806000806000807f01000000000000000000000000000000000000000000000000000000000000000288600060208110151561334957fe5b1a7f0100000000000000000000000000000000000000000000000000000000000000027effffffffffffffffffffffffffffffffffffffffffffffffffffffffffffff19161415151561339b57600080fd5b60007f010000000000000000000000000000000000000000000000000000000000000002600860008a600019166000191681526020019081526020016000206000015460006020811015156133ec57fe5b1a7f0100000000000000000000000000000000000000000000000000000000000000027effffffffffffffffffffffffffffffffffffffffffffffffffffffffffffff19161415151561343e57600080fd5b613465600860008a6000191660001916815260200190815260200160002060030154612884565b9650965096509650965096509650919395979092949650565b6040805190810160405280600c81526020017f43616e576f726b41646d696e00000000000000000000000000000000000000008152506040805190810160405280600581526020017f302e312e340000000000000000000000000000000000000000000000000000008152506134f48282612d71565b15151561350057600080fd5b600073ffffffffffffffffffffffffffffffffffffffff168673ffffffffffffffffffffffffffffffffffffffff161415801561356a5750600073ffffffffffffffffffffffffffffffffffffffff168573ffffffffffffffffffffffffffffffffffffffff1614155b80156135a35750600073ffffffffffffffffffffffffffffffffffffffff168473ffffffffffffffffffffffffffffffffffffffff1614155b80156135dc5750600073ffffffffffffffffffffffffffffffffffffffff168373ffffffffffffffffffffffffffffffffffffffff1614155b15156135e757600080fd5b85600760016101000a81548173ffffffffffffffffffffffffffffffffffffffff021916908373ffffffffffffffffffffffffffffffffffffffff1602179055506001600760006101000a81548160ff021916908360ff160217905550613683856040805190810160405280600581526020017f6f776e6572000000000000000000000000000000000000000000000000000000815250614e97565b6136c2846040805190810160405280600581526020017f6f776e6572000000000000000000000000000000000000000000000000000000815250614e97565b613701836040805190810160405280600581526020017f6f776e6572000000000000000000000000000000000000000000000000000000815250614e97565b7fdd117a11c22118c9dee4b5a67ce578bc44529dce21ee0ccc439588fbb9fb4ea38282604051808060200180602001838103835285818151815260200191508051906020019080838360005b8381101561376857808201518184015260208101905061374d565b50505050905090810190601f1680156137955780820380516001836020036101000a031916815260200191505b50838103825284818151815260200191508051906020019080838360005b838110156137ce5780820151818401526020810190506137b3565b50505050905090810190601f1680156137fb5780820380516001836020036101000a031916815260200191505b5094505050505060405180910390a160016002836040518082805190602001908083835b602083101515613844578051825260208201915060208101905060208303925061381f565b6001836020036101000a0380198251168184511680821785525050505050509050019150509081526020016040518091039020826040518082805190602001908083835b6020831015156138ad5780518252602082019150602081019050602083039250613888565b6001836020036101000a038019825116818451168082178552505050505050905001915050908152602001604051809103902060006101000a81548160ff021916908315150217905550505050505050565b60008060008060008060008711801561392e575060006006600089815260200190815260200160002060050154115b151561393957600080fd5b6006600088815260200190815260200160002060040160009054906101000a900460ff16600281111561396857fe5b6006600089815260200190815260200160002060030154600660008a815260200190815260200160002060070154600660008b815260200190815260200160002060080154600660008c815260200190815260200160002060090154600660008d8152602001908152602001600020600a015495509550955095509550955091939550919395565b6139fa8282614371565b1515613a0557600080fd5b5050565b6000806000836000191660001916815260200190815260200160002060020160009054906101000a900460ff169050919050565b60008073ffffffffffffffffffffffffffffffffffffffff168373ffffffffffffffffffffffffffffffffffffffff1614151515613a7a57600080fd5b60011515600080846000191660001916815260200190815260200160002060010160008573ffffffffffffffffffffffffffffffffffffffff1673ffffffffffffffffffffffffffffffffffffffff16815260200190815260200160002060009054906101000a900460ff16151514151515613af557600080fd5b6001600080846000191660001916815260200190815260200160002060020160008282829054906101000a900460ff160192506101000a81548160ff021916908360ff16021790555060008083600019166000191681526020019081526020016000206000018390806001815401808255809150509060018203906000526020600020016000909192909190916101000a81548173ffffffffffffffffffffffffffffffffffffffff021916908373ffffffffffffffffffffffffffffffffffffffff160217905550506001600080846000191660001916815260200190815260200160002060010160008573ffffffffffffffffffffffffffffffffffffffff1673ffffffffffffffffffffffffffffffffffffffff16815260200190815260200160002060006101000a81548160ff021916908315150217905550600080836000191660001916815260200190815260200160002060020160009054906101000a900460ff16905092915050565b600080600080600080866000191660001916815260200190815260200160002060020160006101000a81548160ff021916908360ff160217905550600091505b600080856000191660001916815260200190815260200160002060000180549050821015613da457600080856000191660001916815260200190815260200160002060000182815481101515613cf757fe5b9060005260206000200160009054906101000a900473ffffffffffffffffffffffffffffffffffffffff1690506000806000866000191660001916815260200190815260200160002060010160008373ffffffffffffffffffffffffffffffffffffffff1673ffffffffffffffffffffffffffffffffffffffff16815260200190815260200160002060006101000a81548160ff0219169083151502179055508180600101925050613ca5565b600192505050919050565b6040805190810160405280600681526020017f457363726f7700000000000000000000000000000000000000000000000000008152506040805190810160405280600581526020017f302e312e34000000000000000000000000000000000000000000000000000000815250613e258282612d71565b151515613e3157600080fd5b600073ffffffffffffffffffffffffffffffffffffffff168473ffffffffffffffffffffffffffffffffffffffff1614158015613e9b5750600073ffffffffffffffffffffffffffffffffffffffff168373ffffffffffffffffffffffffffffffffffffffff1614155b1515613ea657600080fd5b83600360006101000a81548173ffffffffffffffffffffffffffffffffffffffff021916908373ffffffffffffffffffffffffffffffffffffffff16021790555082600560006101000a81548173ffffffffffffffffffffffffffffffffffffffff021916908373ffffffffffffffffffffffffffffffffffffffff1602179055508273ffffffffffffffffffffffffffffffffffffffff168473ffffffffffffffffffffffffffffffffffffffff167f0a3c5299ff3c9081aca91f75b9d88d7e14be19d31ca64abbf9ad33bbe98fb32660405160405180910390a37fdd117a11c22118c9dee4b5a67ce578bc44529dce21ee0ccc439588fbb9fb4ea38282604051808060200180602001838103835285818151815260200191508051906020019080838360005b83811015613fe9578082015181840152602081019050613fce565b50505050905090810190601f1680156140165780820380516001836020036101000a031916815260200191505b50838103825284818151815260200191508051906020019080838360005b8381101561404f578082015181840152602081019050614034565b50505050905090810190601f16801561407c5780820380516001836020036101000a031916815260200191505b5094505050505060405180910390a160016002836040518082805190602001908083835b6020831015156140c557805182526020820191506020810190506020830392506140a0565b6001836020036101000a0380198251168184511680821785525050505050509050019150509081526020016040518091039020826040518082805190602001908083835b60208310151561412e5780518252602082019150602081019050602083039250614109565b6001836020036101000a038019825116818451168082178552505050505050905001915050908152602001604051809103902060006101000a81548160ff02191690831515021790555050505050565b6141fb826001836040518082805190602001908083835b6020831015156141ba5780518252602082019150602081019050602083039250614195565b6001836020036101000a038019825116818451168082178552505050505050905001915050908152602001604051809103902061580990919063ffffffff16565b7fd211483f91fc6eff862467f8de606587a30c8fc9981056f051b897a418df803a8282604051808373ffffffffffffffffffffffffffffffffffffffff1673ffffffffffffffffffffffffffffffffffffffff16815260200180602001828103825283818151815260200191508051906020019080838360005b83811015614290578082015181840152602081019050614275565b50505050905090810190601f1680156142bd5780820380516001836020036101000a031916815260200191505b50935050505060405180910390a15050565b600080600084600001848154811015156142e557fe5b9060005260206000200160009054906101000a900473ffffffffffffffffffffffffffffffffffffffff169050808560010160008373ffffffffffffffffffffffffffffffffffffffff1673ffffffffffffffffffffffffffffffffffffffff16815260200190815260200160002060010160009054906101000a900460ff1692509250509250929050565b60008260010160008373ffffffffffffffffffffffffffffffffffffffff1673ffffffffffffffffffffffffffffffffffffffff16815260200190815260200160002060010160009054906101000a900460ff16905092915050565b6000808314156143e057600090506143ff565b81830290508183828115156143f157fe5b041415156143fb57fe5b8090505b92915050565b6000818381151561441257fe5b04905092915050565b6000806000600281111561442b57fe5b6006600088815260200190815260200160002060040160009054906101000a900460ff16600281111561445a57fe5b14151561446657600080fd5b60008510158015614478575060008310155b151561448357600080fd5b6144be856144b085600660008b81526020019081526020016000206007015461586a90919063ffffffff16565b61586a90919063ffffffff16565b6006600088815260200190815260200160002060030154101515156144e257600080fd5b60026006600088815260200190815260200160002060040160006101000a81548160ff0219169083600281111561451557fe5b021790555043600660008881526020019081526020016000206006018190555060008311156146a157600073ffffffffffffffffffffffffffffffffffffffff168473ffffffffffffffffffffffffffffffffffffffff161415151561457a57600080fd5b8260066000888152602001908152602001600020600a0181905550600360009054906101000a900473ffffffffffffffffffffffffffffffffffffffff1673ffffffffffffffffffffffffffffffffffffffff1663a9059cbb85856040518363ffffffff167c0100000000000000000000000000000000000000000000000000000000028152600401808373ffffffffffffffffffffffffffffffffffffffff1673ffffffffffffffffffffffffffffffffffffffff16815260200182815260200192505050602060405180830381600087803b15801561465a57600080fd5b505af115801561466e573d6000803e3d6000fd5b505050506040513d602081101561468457600080fd5b810190808051906020019092919050505015156146a057600080fd5b5b600085111561480757846006600088815260200190815260200160002060080181905550600360009054906101000a900473ffffffffffffffffffffffffffffffffffffffff1673ffffffffffffffffffffffffffffffffffffffff1663a9059cbb6006600089815260200190815260200160002060020160009054906101000a900473ffffffffffffffffffffffffffffffffffffffff16876040518363ffffffff167c0100000000000000000000000000000000000000000000000000000000028152600401808373ffffffffffffffffffffffffffffffffffffffff1673ffffffffffffffffffffffffffffffffffffffff16815260200182815260200192505050602060405180830381600087803b1580156147c057600080fd5b505af11580156147d4573d6000803e3d6000fd5b505050506040513d60208110156147ea57600080fd5b8101908080519060200190929190505050151561480657600080fd5b5b6148428561483485600660008b81526020019081526020016000206007015461586a90919063ffffffff16565b61586a90919063ffffffff16565b905061486d81600660008981526020019081526020016000206003015461588690919063ffffffff16565b60066000888152602001908152602001600020600901819055506000600660008881526020019081526020016000206009015411156149fe57600360009054906101000a900473ffffffffffffffffffffffffffffffffffffffff1673ffffffffffffffffffffffffffffffffffffffff1663a9059cbb6006600089815260200190815260200160002060010160009054906101000a900473ffffffffffffffffffffffffffffffffffffffff16600660008a8152602001908152602001600020600901546040518363ffffffff167c0100000000000000000000000000000000000000000000000000000000028152600401808373ffffffffffffffffffffffffffffffffffffffff1673ffffffffffffffffffffffffffffffffffffffff16815260200182815260200192505050602060405180830381600087803b1580156149b757600080fd5b505af11580156149cb573d6000803e3d6000fd5b505050506040513d60208110156149e157600080fd5b810190808051906020019092919050505015156149fd57600080fd5b5b8373ffffffffffffffffffffffffffffffffffffffff1686600560009054906101000a900473ffffffffffffffffffffffffffffffffffffffff1673ffffffffffffffffffffffffffffffffffffffff167f23157ee5a4e89bcebb1fc3e9b6e1533aefe88f9bde92308b49a71e800103542b8887604051808381526020018281526020019250505060405180910390a46001915050949350505050565b6000806000806000866000191660001916815260200190815260200160002060000184815481101515614aca57fe5b9060005260206000200160009054906101000a900473ffffffffffffffffffffffffffffffffffffffff16905080600080876000191660001916815260200190815260200160002060010160008373ffffffffffffffffffffffffffffffffffffffff1673ffffffffffffffffffffffffffffffffffffffff16815260200190815260200160002060009054906101000a900460ff1692509250509250929050565b6000806002811115614b7a57fe5b6006600084815260200190815260200160002060040160009054906101000a900460ff166002811115614ba957fe5b141515614bb557600080fd5b3373ffffffffffffffffffffffffffffffffffffffff166006600084815260200190815260200160002060020160009054906101000a900473ffffffffffffffffffffffffffffffffffffffff1673ffffffffffffffffffffffffffffffffffffffff16141515614c2557600080fd5b614c646006600084815260200190815260200160002060070154600660008581526020019081526020016000206003015461588690919063ffffffff16565b600660008481526020019081526020016000206009018190555060026006600084815260200190815260200160002060040160006101000a81548160ff02191690836002811115614cb157fe5b0217905550436006600084815260200190815260200160002060060181905550600360009054906101000a900473ffffffffffffffffffffffffffffffffffffffff1673ffffffffffffffffffffffffffffffffffffffff1663a9059cbb6006600085815260200190815260200160002060010160009054906101000a900473ffffffffffffffffffffffffffffffffffffffff1660066000868152602001908152602001600020600901546040518363ffffffff167c0100000000000000000000000000000000000000000000000000000000028152600401808373ffffffffffffffffffffffffffffffffffffffff1673ffffffffffffffffffffffffffffffffffffffff16815260200182815260200192505050602060405180830381600087803b158015614de257600080fd5b505af1158015614df6573d6000803e3d6000fd5b505050506040513d6020811015614e0c57600080fd5b81019080805190602001909291905050501515614e2857600080fd5b81600560009054906101000a900473ffffffffffffffffffffffffffffffffffffffff1673ffffffffffffffffffffffffffffffffffffffff167f42a9d051cfad92ff80e72d1f2fe48fd37941d2e3d8a231b4a2a6993474dd672660405160405180910390a360019050919050565b614ea18282611c43565b151515614ead57600080fd5b614f2a826001836040518082805190602001908083835b602083101515614ee95780518252602082019150602081019050602083039250614ec4565b6001836020036101000a038019825116818451168082178552505050505050905001915050908152602001604051809103902061589f90919063ffffffff16565b7fbfec83d64eaa953f2708271a023ab9ee82057f8f3578d548c1a4ba0b5b7004898282604051808373ffffffffffffffffffffffffffffffffffffffff1673ffffffffffffffffffffffffffffffffffffffff16815260200180602001828103825283818151815260200191508051906020019080838360005b83811015614fbf578082015181840152602081019050614fa4565b50505050905090810190601f168015614fec5780820380516001836020036101000a031916815260200191505b50935050505060405180910390a15050565b600080600281111561500c57fe5b6006600084815260200190815260200160002060040160009054906101000a900460ff16600281111561503b57fe5b14151561504757600080fd5b3373ffffffffffffffffffffffffffffffffffffffff166006600084815260200190815260200160002060010160009054906101000a900473ffffffffffffffffffffffffffffffffffffffff1673ffffffffffffffffffffffffffffffffffffffff161415156150b757600080fd5b60016006600084815260200190815260200160002060040160006101000a81548160ff021916908360028111156150ea57fe5b021790555061512e6006600084815260200190815260200160002060070154600660008581526020019081526020016000206003015461588690919063ffffffff16565b6006600084815260200190815260200160002060080181905550436006600084815260200190815260200160002060060181905550600360009054906101000a900473ffffffffffffffffffffffffffffffffffffffff1673ffffffffffffffffffffffffffffffffffffffff1663a9059cbb6006600085815260200190815260200160002060020160009054906101000a900473ffffffffffffffffffffffffffffffffffffffff1660066000868152602001908152602001600020600801546040518363ffffffff167c0100000000000000000000000000000000000000000000000000000000028152600401808373ffffffffffffffffffffffffffffffffffffffff1673ffffffffffffffffffffffffffffffffffffffff16815260200182815260200192505050602060405180830381600087803b15801561527457600080fd5b505af1158015615288573d6000803e3d6000fd5b505050506040513d602081101561529e57600080fd5b810190808051906020019092919050505015156152ba57600080fd5b81600560009054906101000a900473ffffffffffffffffffffffffffffffffffffffff1673ffffffffffffffffffffffffffffffffffffffff167f4bebfffc0dc0fb54ffd42c8fe2424e8fe0c482f089c4d0d6e6f1ea5d9e34248a60405160405180910390a360019050919050565b600081600001805490509050919050565b60008060008073ffffffffffffffffffffffffffffffffffffffff168773ffffffffffffffffffffffffffffffffffffffff16141580156153a85750600073ffffffffffffffffffffffffffffffffffffffff168673ffffffffffffffffffffffffffffffffffffffff1614155b80156153b45750600085115b80156153c1575060008410155b15156153cc57600080fd5b600360009054906101000a900473ffffffffffffffffffffffffffffffffffffffff1673ffffffffffffffffffffffffffffffffffffffff166323b872dd8830886040518463ffffffff167c0100000000000000000000000000000000000000000000000000000000028152600401808473ffffffffffffffffffffffffffffffffffffffff1673ffffffffffffffffffffffffffffffffffffffff1681526020018373ffffffffffffffffffffffffffffffffffffffff1673ffffffffffffffffffffffffffffffffffffffff1681526020018281526020019350505050602060405180830381600087803b1580156154c557600080fd5b505af11580156154d9573d6000803e3d6000fd5b505050506040513d60208110156154ef57600080fd5b8101908080519060200190929190505050151561550b57600080fd5b6004600081546001019190508190559150600660008381526020019081526020016000209050818160000181905550868160010160006101000a81548173ffffffffffffffffffffffffffffffffffffffff021916908373ffffffffffffffffffffffffffffffffffffffff160217905550858160020160006101000a81548173ffffffffffffffffffffffffffffffffffffffff021916908373ffffffffffffffffffffffffffffffffffffffff16021790555084816003018190555043816005018190555060008160040160006101000a81548160ff021916908360028111156155f357fe5b02179055506000816008018190555060008160090181905550600081600a0181905550600084111561575657838160070181905550600360009054906101000a900473ffffffffffffffffffffffffffffffffffffffff1673ffffffffffffffffffffffffffffffffffffffff1663a9059cbb600560009054906101000a900473ffffffffffffffffffffffffffffffffffffffff16866040518363ffffffff167c0100000000000000000000000000000000000000000000000000000000028152600401808373ffffffffffffffffffffffffffffffffffffffff1673ffffffffffffffffffffffffffffffffffffffff16815260200182815260200192505050602060405180830381600087803b15801561570f57600080fd5b505af1158015615723573d6000803e3d6000fd5b505050506040513d602081101561573957600080fd5b8101908080519060200190929190505050151561575557600080fd5b5b8573ffffffffffffffffffffffffffffffffffffffff168773ffffffffffffffffffffffffffffffffffffffff16600560009054906101000a900473ffffffffffffffffffffffffffffffffffffffff1673ffffffffffffffffffffffffffffffffffffffff167f2deff110fb90284ba1ebd12f5a2a449109b5327e5144dcf39bae0fa2fcfa7afb8888604051808381526020018281526020019250505060405180910390a48192505050949350505050565b60008260010160008373ffffffffffffffffffffffffffffffffffffffff1673ffffffffffffffffffffffffffffffffffffffff16815260200190815260200160002060010160006101000a81548160ff0219169083151502179055505050565b6000818301905082811015151561587d57fe5b80905092915050565b600082821115151561589457fe5b818303905092915050565b816000018190806001815401808255809150509060018203906000526020600020016000909192909190916101000a81548173ffffffffffffffffffffffffffffffffffffffff021916908373ffffffffffffffffffffffffffffffffffffffff1602179055505060018260000180549050038260010160008373ffffffffffffffffffffffffffffffffffffffff1673ffffffffffffffffffffffffffffffffffffffff1681526020019081526020016000206000018190555060018260010160008373ffffffffffffffffffffffffffffffffffffffff1673ffffffffffffffffffffffffffffffffffffffff16815260200190815260200160002060010160006101000a81548160ff02191690831515021790555050505600a165627a7a72305820c5f91a8f699eae50530ce88c6fdde64c33a10998de8c916d31b2ff67ffb2f1c00029",
  "source": "pragma solidity 0.4.24;\n\nimport \"./Debugable.sol\";\nimport \"./Escrow.sol\";\nimport \"./CanWorkAdmin.sol\";\n\n\ncontract CanWorkJob is Debugable, Escrow, CanWorkAdmin {\n    \n    using SafeMath for uint256;\n\n    enum JobStatus {\n        New,\n        Completed,\n        Cancelled\n    }\n\n    struct Job {\n      bytes32 id;\n      address client;\n      address provider;\n      uint256 escrowId;\n      JobStatus status;\n      uint256 amount;\n    }\n\n    mapping(bytes32 => Job) internal jobs;\n    address dApp;\n\n    event OnCreateJob(address indexed dapp, bytes32 indexed jobId, address client, address indexed provider, uint256 totalCosts);\n    event OnCompleteJob(address indexed dapp, bytes32 indexed jobId);\n    event OnCancelJobByProvider(address indexed dapp, bytes32 indexed jobId);\n    event OnCancelJobByAdmin(address indexed dapp, bytes32 indexed jobId, uint256 payToProviderAmount, address indexed arbiter, uint256 payToArbiterAmount);\n\n    function initialize(ERC20 _token, address _dApp, address _owner1, address _owner2, address _owner3) \n    public \n    isInitializer(\"CanWorkJob\", \"0.1.4\") {\n        require(_token != address(0) && _dApp != address(0) && _owner1 != address(0) && _owner2 != address(0) && _owner3 != address(0));\n        \n        dApp = _dApp;\n        \n        Escrow.initialize(_token, _dApp);\n        CanWorkAdmin.initialize(_token, _owner1, _owner2, _owner3);\n    }\n\n    function createJob(bytes32 _jobId, address _client, address _provider, uint256 _totalCosts) \n    public \n    returns (bool) {\n        require(_jobId[0] != 0);\n        require(jobs[_jobId].id[0] == 0);\n\n        uint256 payToDappAmount = _totalCosts.mul(CANWORK_PAYMENT_PERCENTAGE).div(100);\n\n        jobs[_jobId].id = _jobId;\n        jobs[_jobId].client = _client;\n        jobs[_jobId].provider = _provider;\n        jobs[_jobId].status = JobStatus.New;\n        jobs[_jobId].amount = _totalCosts;\n        jobs[_jobId].escrowId = createEscrow(_client, _provider, _totalCosts, payToDappAmount);\n\n        emit OnCreateJob(dApp, _jobId, _client, _provider, _totalCosts);\n\n        return true;\n    }\n\n    function completeJob(bytes32 _jobId) \n    public \n    returns (bool) {  \n        require(_jobId[0] != 0);\n        require(jobs[_jobId].status == JobStatus.New);\n        require(jobs[_jobId].client == msg.sender);   \n        \n        require(completeEscrow(jobs[_jobId].escrowId));\n        \n        jobs[_jobId].status = JobStatus.Completed;\n\n        emit OnCompleteJob(dApp, _jobId);\n\n        return true;\n    }\n\n    function cancelJobByProvider(bytes32 _jobId) \n    public \n    returns (bool) {\n        require(_jobId[0] != 0);  \n        require(jobs[_jobId].status == JobStatus.New);\n        require(jobs[_jobId].provider == msg.sender);\n        \n        require(cancelEscrowByProvider(jobs[_jobId].escrowId));\n        \n        jobs[_jobId].status = JobStatus.Cancelled;\n\n        emit OnCancelJobByProvider(dApp, _jobId);\n\n        return true;\n    }\n\n    function cancelJobByAdmin(bytes32 _jobId, uint256 _payToProviderAmount, address _arbiter, uint256 _payToArbiterAmount) \n    public \n    onlyRole(ROLE_ADMIN)\n    returns (bool) {\n        require(_jobId[0] != 0);  \n        require(jobs[_jobId].status == JobStatus.New);\n        \n        uint maxArbiterPayment = jobs[_jobId].amount.mul(5).div(100);\n\n        require(_payToArbiterAmount <= maxArbiterPayment);        \n        \n        require(cancelEscrow(jobs[_jobId].escrowId, _payToProviderAmount, _arbiter, _payToArbiterAmount));\n\n        jobs[_jobId].status = JobStatus.Cancelled;\n\n        emit OnCancelJobByAdmin(dApp, _jobId, _payToProviderAmount, _arbiter, _payToArbiterAmount);\n\n        return true;\n    }\n\n    function getJob(bytes32 _jobId) \n    public \n    view \n    returns (\n      address client, \n      address provider,\n      uint256 amount,\n      uint8 status, \n      uint256 createdAt, \n      uint256 closedAt, \n      uint256 paidToProviderAmount\n      ) {\n      require(_jobId[0] != 0); \n      require(jobs[_jobId].id[0] != 0);\n\n      return getEscrow(jobs[_jobId].escrowId);\n    }\n\n    function getJobPayments(bytes32 _jobId) \n    public \n    view \n    returns (\n      uint8 status,\n      uint256 amount,     \n      uint256 paidToDappAmount,\n      uint256 paidToProviderAmount,\n      uint256 paidToClientAmount,\n      uint256 paidToArbiterAmount\n      ) {\n      require(_jobId[0] != 0); \n      require(jobs[_jobId].id[0] != 0);\n\n      return getEscrowPayments(jobs[_jobId].escrowId);\n    }\n}",
  "sourcePath": "/Users/user/workspace_work/CanYa/can-work/contracts/CanWorkJob.sol",
  "compiler": {
    "name": "solc",
    "version": "0.4.24+commit.e67f0147.Emscripten.clang"
  },
  "schemaVersion": "2.0.0",
  "updatedAt": "2018-07-19T14:59:02.250Z"
}