{
  "contractName": "CanWork",
  "abi": [
    {
      "constant": false,
      "inputs": [
        {
          "name": "_jobId",
          "type": "bytes32"
        },
        {
          "name": "_payToProviderAmount",
          "type": "uint256"
        },
        {
          "name": "_arbiter",
          "type": "address"
        },
        {
          "name": "_payToArbiterAmount",
          "type": "uint256"
        }
      ],
      "name": "cancelJobByAdmin",
      "outputs": [
        {
          "name": "",
          "type": "bool"
        }
      ],
      "payable": false,
      "stateMutability": "nonpayable",
      "type": "function"
    },
    {
      "constant": false,
      "inputs": [
        {
          "name": "_jobId",
          "type": "bytes32"
        }
      ],
      "name": "cancelJobByProvider",
      "outputs": [
        {
          "name": "",
          "type": "bool"
        }
      ],
      "payable": false,
      "stateMutability": "nonpayable",
      "type": "function"
    },
    {
      "constant": true,
      "inputs": [
        {
          "name": "_escrowId",
          "type": "uint256"
        }
      ],
      "name": "getEscrow",
      "outputs": [
        {
          "name": "client",
          "type": "address"
        },
        {
          "name": "provider",
          "type": "address"
        },
        {
          "name": "amount",
          "type": "uint256"
        },
        {
          "name": "status",
          "type": "uint8"
        },
        {
          "name": "createdAt",
          "type": "uint256"
        },
        {
          "name": "closedAt",
          "type": "uint256"
        },
        {
          "name": "paidToProviderAmount",
          "type": "uint256"
        }
      ],
      "payable": false,
      "stateMutability": "view",
      "type": "function"
    },
    {
      "constant": true,
      "inputs": [],
      "name": "ROLE_OWNER",
      "outputs": [
        {
          "name": "",
          "type": "string"
        }
      ],
      "payable": false,
      "stateMutability": "view",
      "type": "function"
    },
    {
      "constant": false,
      "inputs": [
        {
          "name": "_jobId",
          "type": "bytes32"
        }
      ],
      "name": "completeJob",
      "outputs": [
        {
          "name": "",
          "type": "bool"
        }
      ],
      "payable": false,
      "stateMutability": "nonpayable",
      "type": "function"
    },
    {
      "constant": true,
      "inputs": [
        {
          "name": "_jobId",
          "type": "bytes32"
        }
      ],
      "name": "getJobPayments",
      "outputs": [
        {
          "name": "status",
          "type": "uint8"
        },
        {
          "name": "amount",
          "type": "uint256"
        },
        {
          "name": "paidToDappAmount",
          "type": "uint256"
        },
        {
          "name": "paidToProviderAmount",
          "type": "uint256"
        },
        {
          "name": "paidToClientAmount",
          "type": "uint256"
        },
        {
          "name": "paidToArbiterAmount",
          "type": "uint256"
        }
      ],
      "payable": false,
      "stateMutability": "view",
      "type": "function"
    },
    {
      "constant": true,
      "inputs": [
        {
          "name": "contractName",
          "type": "string"
        },
        {
          "name": "migrationId",
          "type": "string"
        }
      ],
      "name": "isMigrated",
      "outputs": [
        {
          "name": "",
          "type": "bool"
        }
      ],
      "payable": false,
      "stateMutability": "view",
      "type": "function"
    },
    {
      "constant": true,
      "inputs": [],
      "name": "ROLE_ADMIN",
      "outputs": [
        {
          "name": "",
          "type": "string"
        }
      ],
      "payable": false,
      "stateMutability": "view",
      "type": "function"
    },
    {
      "constant": false,
      "inputs": [
        {
          "name": "_jobId",
          "type": "bytes32"
        },
        {
          "name": "_client",
          "type": "address"
        },
        {
          "name": "_provider",
          "type": "address"
        },
        {
          "name": "_totalCosts",
          "type": "uint256"
        }
      ],
      "name": "createJob",
      "outputs": [
        {
          "name": "",
          "type": "bool"
        }
      ],
      "payable": false,
      "stateMutability": "nonpayable",
      "type": "function"
    },
    {
      "constant": true,
      "inputs": [
        {
          "name": "_jobId",
          "type": "bytes32"
        }
      ],
      "name": "getJob",
      "outputs": [
        {
          "name": "client",
          "type": "address"
        },
        {
          "name": "provider",
          "type": "address"
        },
        {
          "name": "amount",
          "type": "uint256"
        },
        {
          "name": "status",
          "type": "uint8"
        },
        {
          "name": "createdAt",
          "type": "uint256"
        },
        {
          "name": "closedAt",
          "type": "uint256"
        },
        {
          "name": "paidToProviderAmount",
          "type": "uint256"
        }
      ],
      "payable": false,
      "stateMutability": "view",
      "type": "function"
    },
    {
      "constant": true,
      "inputs": [
        {
          "name": "_escrowId",
          "type": "uint256"
        }
      ],
      "name": "getEscrowPayments",
      "outputs": [
        {
          "name": "status",
          "type": "uint8"
        },
        {
          "name": "amount",
          "type": "uint256"
        },
        {
          "name": "paidToDappAmount",
          "type": "uint256"
        },
        {
          "name": "paidToProviderAmount",
          "type": "uint256"
        },
        {
          "name": "paidToClientAmount",
          "type": "uint256"
        },
        {
          "name": "paidToArbiterAmount",
          "type": "uint256"
        }
      ],
      "payable": false,
      "stateMutability": "view",
      "type": "function"
    },
    {
      "anonymous": false,
      "inputs": [
        {
          "indexed": true,
          "name": "toAddress",
          "type": "address"
        },
        {
          "indexed": false,
          "name": "balance",
          "type": "uint256"
        }
      ],
      "name": "OnEmeregencyTransfer",
      "type": "event"
    },
    {
      "anonymous": false,
      "inputs": [
        {
          "indexed": true,
          "name": "dapp",
          "type": "address"
        },
        {
          "indexed": true,
          "name": "jobId",
          "type": "bytes32"
        },
        {
          "indexed": false,
          "name": "client",
          "type": "address"
        },
        {
          "indexed": true,
          "name": "provider",
          "type": "address"
        },
        {
          "indexed": false,
          "name": "totalCosts",
          "type": "uint256"
        }
      ],
      "name": "OnCreateJob",
      "type": "event"
    },
    {
      "anonymous": false,
      "inputs": [
        {
          "indexed": true,
          "name": "dapp",
          "type": "address"
        },
        {
          "indexed": true,
          "name": "jobId",
          "type": "bytes32"
        }
      ],
      "name": "OnCompleteJob",
      "type": "event"
    },
    {
      "anonymous": false,
      "inputs": [
        {
          "indexed": true,
          "name": "dapp",
          "type": "address"
        },
        {
          "indexed": true,
          "name": "jobId",
          "type": "bytes32"
        }
      ],
      "name": "OnCancelJobByProvider",
      "type": "event"
    },
    {
      "anonymous": false,
      "inputs": [
        {
          "indexed": true,
          "name": "dapp",
          "type": "address"
        },
        {
          "indexed": true,
          "name": "jobId",
          "type": "bytes32"
        },
        {
          "indexed": false,
          "name": "payToProviderAmount",
          "type": "uint256"
        },
        {
          "indexed": true,
          "name": "arbiter",
          "type": "address"
        },
        {
          "indexed": false,
          "name": "payToArbiterAmount",
          "type": "uint256"
        }
      ],
      "name": "OnCancelJobByAdmin",
      "type": "event"
    },
    {
      "anonymous": false,
      "inputs": [
        {
          "indexed": true,
          "name": "token",
          "type": "address"
        },
        {
          "indexed": true,
          "name": "dApp",
          "type": "address"
        }
      ],
      "name": "OnInitialize",
      "type": "event"
    },
    {
      "anonymous": false,
      "inputs": [
        {
          "indexed": true,
          "name": "dapp",
          "type": "address"
        },
        {
          "indexed": true,
          "name": "client",
          "type": "address"
        },
        {
          "indexed": true,
          "name": "provider",
          "type": "address"
        },
        {
          "indexed": false,
          "name": "amount",
          "type": "uint256"
        },
        {
          "indexed": false,
          "name": "payToDappAmount",
          "type": "uint256"
        }
      ],
      "name": "OnCreateEscrow",
      "type": "event"
    },
    {
      "anonymous": false,
      "inputs": [
        {
          "indexed": true,
          "name": "dapp",
          "type": "address"
        },
        {
          "indexed": true,
          "name": "escrowId",
          "type": "uint256"
        }
      ],
      "name": "OnCompleteEscrow",
      "type": "event"
    },
    {
      "anonymous": false,
      "inputs": [
        {
          "indexed": true,
          "name": "dapp",
          "type": "address"
        },
        {
          "indexed": true,
          "name": "escrowId",
          "type": "uint256"
        }
      ],
      "name": "OnCancelEscrowByProvider",
      "type": "event"
    },
    {
      "anonymous": false,
      "inputs": [
        {
          "indexed": true,
          "name": "dapp",
          "type": "address"
        },
        {
          "indexed": true,
          "name": "escrowId",
          "type": "uint256"
        },
        {
          "indexed": false,
          "name": "payToProviderAmount",
          "type": "uint256"
        },
        {
          "indexed": true,
          "name": "arbiter",
          "type": "address"
        },
        {
          "indexed": false,
          "name": "payToArbiterAmount",
          "type": "uint256"
        }
      ],
      "name": "OnCancelEscrow",
      "type": "event"
    },
    {
      "anonymous": false,
      "inputs": [
        {
          "indexed": false,
          "name": "contractName",
          "type": "string"
        },
        {
          "indexed": false,
          "name": "migrationId",
          "type": "string"
        }
      ],
      "name": "Migrated",
      "type": "event"
    },
    {
      "constant": false,
      "inputs": [
        {
          "name": "_token",
          "type": "address"
        },
        {
          "name": "_canworkAdmin",
          "type": "address"
        },
        {
          "name": "_dApp",
          "type": "address"
        }
      ],
      "name": "initialize",
      "outputs": [],
      "payable": false,
      "stateMutability": "nonpayable",
      "type": "function"
    },
    {
      "constant": false,
      "inputs": [
        {
          "name": "toAddress",
          "type": "address"
        }
      ],
      "name": "emergencyTransfer",
      "outputs": [
        {
          "name": "",
          "type": "bool"
        }
      ],
      "payable": false,
      "stateMutability": "nonpayable",
      "type": "function"
    },
    {
      "constant": true,
      "inputs": [
        {
          "name": "_toAddress",
          "type": "address"
        }
      ],
      "name": "getEmergencyTransferSignersCount",
      "outputs": [
        {
          "name": "",
          "type": "uint256"
        }
      ],
      "payable": false,
      "stateMutability": "view",
      "type": "function"
    },
    {
      "constant": true,
      "inputs": [
        {
          "name": "_owner",
          "type": "address"
        },
        {
          "name": "index",
          "type": "uint256"
        }
      ],
      "name": "getEmergencyTransferSigner",
      "outputs": [
        {
          "name": "",
          "type": "address"
        },
        {
          "name": "",
          "type": "bool"
        }
      ],
      "payable": false,
      "stateMutability": "view",
      "type": "function"
    }
  ],
  "bytecode": "0x6080604052600060025534801561001557600080fd5b5061443b806100256000396000f3006080604052600436106100db576000357c0100000000000000000000000000000000000000000000000000000000900463ffffffff1680630e501834146100e057806341defd821461013b5780636e6bfca0146101b85780637d19e596146102015780638ad682af146102ca578063991e01391461035a578063afcfad6e146103a3578063c0bac1a814610411578063c0c53b8b146104d8578063d047a0d01461055b578063d391014b146105f3578063dea90acf14610683578063e7acaa1e146106da578063f729cf0d1461076d578063fd232b591461083a575b600080fd5b3480156100ec57600080fd5b50610121600480360381019080803573ffffffffffffffffffffffffffffffffffffffff1690602001909291905050506108a4565b604051808215151515815260200191505060405180910390f35b34801561014757600080fd5b5061019e600480360381019080803560001916906020019092919080359060200190929190803573ffffffffffffffffffffffffffffffffffffffff16906020019092919080359060200190929190505050611032565b604051808215151515815260200191505060405180910390f35b3480156101c457600080fd5b506101e7600480360381019080803560001916906020019092919050505061141b565b604051808215151515815260200191505060405180910390f35b34801561020d57600080fd5b5061022c6004803603810190808035906020019092919050505061164e565b604051808873ffffffffffffffffffffffffffffffffffffffff1673ffffffffffffffffffffffffffffffffffffffff1681526020018773ffffffffffffffffffffffffffffffffffffffff1673ffffffffffffffffffffffffffffffffffffffff1681526020018681526020018560ff1660ff16815260200184815260200183815260200182815260200197505050505050505060405180910390f35b3480156102d657600080fd5b506102df61179b565b6040518080602001828103825283818151815260200191508051906020019080838360005b8381101561031f578082015181840152602081019050610304565b50505050905090810190601f16801561034c5780820380516001836020036101000a031916815260200191505b509250505060405180910390f35b34801561036657600080fd5b5061038960048036038101908080356000191690602001909291905050506117d4565b604051808215151515815260200191505060405180910390f35b3480156103af57600080fd5b506103d26004803603810190808035600019169060200190929190505050611a07565b604051808760ff1660ff168152602001868152602001858152602001848152602001838152602001828152602001965050505050505060405180910390f35b34801561041d57600080fd5b506104be600480360381019080803590602001908201803590602001908080601f0160208091040260200160405190810160405280939291908181526020018383808284378201915050505050509192919290803590602001908201803590602001908080601f0160208091040260200160405190810160405280939291908181526020018383808284378201915050505050509192919290505050611b74565b604051808215151515815260200191505060405180910390f35b3480156104e457600080fd5b50610559600480360381019080803573ffffffffffffffffffffffffffffffffffffffff169060200190929190803573ffffffffffffffffffffffffffffffffffffffff169060200190929190803573ffffffffffffffffffffffffffffffffffffffff169060200190929190505050611c5f565b005b34801561056757600080fd5b506105a6600480360381019080803573ffffffffffffffffffffffffffffffffffffffff16906020019092919080359060200190929190505050611fd8565b604051808373ffffffffffffffffffffffffffffffffffffffff1673ffffffffffffffffffffffffffffffffffffffff168152602001821515151581526020019250505060405180910390f35b3480156105ff57600080fd5b506106086121f8565b6040518080602001828103825283818151815260200191508051906020019080838360005b8381101561064857808201518184015260208101905061062d565b50505050905090810190601f1680156106755780820380516001836020036101000a031916815260200191505b509250505060405180910390f35b34801561068f57600080fd5b506106c4600480360381019080803573ffffffffffffffffffffffffffffffffffffffff169060200190929190505050612231565b6040518082815260200191505060405180910390f35b3480156106e657600080fd5b506107536004803603810190808035600019169060200190929190803573ffffffffffffffffffffffffffffffffffffffff169060200190929190803573ffffffffffffffffffffffffffffffffffffffff1690602001909291908035906020019092919050505061243d565b604051808215151515815260200191505060405180910390f35b34801561077957600080fd5b5061079c60048036038101908080356000191690602001909291905050506127e0565b604051808873ffffffffffffffffffffffffffffffffffffffff1673ffffffffffffffffffffffffffffffffffffffff1681526020018773ffffffffffffffffffffffffffffffffffffffff1673ffffffffffffffffffffffffffffffffffffffff1681526020018681526020018560ff1660ff16815260200184815260200183815260200182815260200197505050505050505060405180910390f35b34801561084657600080fd5b5061086560048036038101908080359060200190929190505050612952565b604051808760ff1660ff168152602001868152602001858152602001848152602001838152602001828152602001965050505050505060405180910390f35b60008060008073ffffffffffffffffffffffffffffffffffffffff168473ffffffffffffffffffffffffffffffffffffffff16141515156108e457600080fd5b3084604051602001808373ffffffffffffffffffffffffffffffffffffffff1673ffffffffffffffffffffffffffffffffffffffff166c010000000000000000000000000281526014018273ffffffffffffffffffffffffffffffffffffffff1673ffffffffffffffffffffffffffffffffffffffff166c01000000000000000000000000028152601401807f656d657267656e63795472616e73666572000000000000000000000000000000815250601101925050506040516020818303038152906040526040518082805190602001908083835b6020831015156109df57805182526020820191506020810190506020830392506109ba565b6001836020036101000a038019825116818451168082178552505050505050905001915050604051809103902091506002600560009054906101000a900473ffffffffffffffffffffffffffffffffffffffff1673ffffffffffffffffffffffffffffffffffffffff166346aaf139846040518263ffffffff167c0100000000000000000000000000000000000000000000000000000000028152600401808260001916600019168152602001915050602060405180830381600087803b158015610aa957600080fd5b505af1158015610abd573d6000803e3d6000fd5b505050506040513d6020811015610ad357600080fd5b810190808051906020019092919050505060ff161015610bff57600560009054906101000a900473ffffffffffffffffffffffffffffffffffffffff1673ffffffffffffffffffffffffffffffffffffffff1663e287adf433846040518363ffffffff167c0100000000000000000000000000000000000000000000000000000000028152600401808373ffffffffffffffffffffffffffffffffffffffff1673ffffffffffffffffffffffffffffffffffffffff168152602001826000191660001916815260200192505050602060405180830381600087803b158015610bba57600080fd5b505af1158015610bce573d6000803e3d6000fd5b505050506040513d6020811015610be457600080fd5b8101908080519060200190929190505050506000925061102b565b600560009054906101000a900473ffffffffffffffffffffffffffffffffffffffff1673ffffffffffffffffffffffffffffffffffffffff1663e287adf433846040518363ffffffff167c0100000000000000000000000000000000000000000000000000000000028152600401808373ffffffffffffffffffffffffffffffffffffffff1673ffffffffffffffffffffffffffffffffffffffff168152602001826000191660001916815260200192505050602060405180830381600087803b158015610ccc57600080fd5b505af1158015610ce0573d6000803e3d6000fd5b505050506040513d6020811015610cf657600080fd5b810190808051906020019092919050505050600560009054906101000a900473ffffffffffffffffffffffffffffffffffffffff1673ffffffffffffffffffffffffffffffffffffffff16635969c0e1836040518263ffffffff167c0100000000000000000000000000000000000000000000000000000000028152600401808260001916600019168152602001915050602060405180830381600087803b158015610da157600080fd5b505af1158015610db5573d6000803e3d6000fd5b505050506040513d6020811015610dcb57600080fd5b810190808051906020019092919050505050600860009054906101000a900473ffffffffffffffffffffffffffffffffffffffff1673ffffffffffffffffffffffffffffffffffffffff166370a08231306040518263ffffffff167c0100000000000000000000000000000000000000000000000000000000028152600401808273ffffffffffffffffffffffffffffffffffffffff1673ffffffffffffffffffffffffffffffffffffffff168152602001915050602060405180830381600087803b158015610e9a57600080fd5b505af1158015610eae573d6000803e3d6000fd5b505050506040513d6020811015610ec457600080fd5b81019080805190602001909291905050509050600860009054906101000a900473ffffffffffffffffffffffffffffffffffffffff1673ffffffffffffffffffffffffffffffffffffffff1663a9059cbb85836040518363ffffffff167c0100000000000000000000000000000000000000000000000000000000028152600401808373ffffffffffffffffffffffffffffffffffffffff1673ffffffffffffffffffffffffffffffffffffffff16815260200182815260200192505050602060405180830381600087803b158015610f9c57600080fd5b505af1158015610fb0573d6000803e3d6000fd5b505050506040513d6020811015610fc657600080fd5b8101908080519060200190929190505050508373ffffffffffffffffffffffffffffffffffffffff167fd52f490db8aced6e82c33e39d01bca1886f5e9579c9e3347e8a89d60ad39bb09826040518082815260200191505060405180910390a2600192505b5050919050565b60008060007f01000000000000000000000000000000000000000000000000000000000000000286600060208110151561106857fe5b1a7f0100000000000000000000000000000000000000000000000000000000000000027effffffffffffffffffffffffffffffffffffffffffffffffffffffffffffff1916141515156110ba57600080fd5b600060028111156110c757fe5b60066000886000191660001916815260200190815260200160002060040160009054906101000a900460ff1660028111156110fe57fe5b14151561110a57600080fd5b600560009054906101000a900473ffffffffffffffffffffffffffffffffffffffff1673ffffffffffffffffffffffffffffffffffffffff1663217fe6c6336040805190810160405280600581526020017f61646d696e0000000000000000000000000000000000000000000000000000008152506040518363ffffffff167c0100000000000000000000000000000000000000000000000000000000028152600401808373ffffffffffffffffffffffffffffffffffffffff1673ffffffffffffffffffffffffffffffffffffffff16815260200180602001828103825283818151815260200191508051906020019080838360005b8381101561121c578082015181840152602081019050611201565b50505050905090810190601f1680156112495780820380516001836020036101000a031916815260200191505b509350505050602060405180830381600087803b15801561126957600080fd5b505af115801561127d573d6000803e3d6000fd5b505050506040513d602081101561129357600080fd5b810190808051906020019092919050505015156112af57600080fd5b6112f460646112e66005600660008b6000191660001916815260200190815260200160002060050154612a4390919063ffffffff16565b612a7b90919063ffffffff16565b905080831115151561130557600080fd5b61132f60066000886000191660001916815260200190815260200160002060030154868686612a91565b151561133a57600080fd5b600260066000886000191660001916815260200190815260200160002060040160006101000a81548160ff0219169083600281111561137557fe5b02179055508373ffffffffffffffffffffffffffffffffffffffff168660001916600760009054906101000a900473ffffffffffffffffffffffffffffffffffffffff1673ffffffffffffffffffffffffffffffffffffffff167f9718f646cc6091a3c9858b508924d4fb6e582b56f9de81537654a535d65cf6328887604051808381526020018281526020019250505060405180910390a46001915050949350505050565b6000807f01000000000000000000000000000000000000000000000000000000000000000282600060208110151561144f57fe5b1a7f0100000000000000000000000000000000000000000000000000000000000000027effffffffffffffffffffffffffffffffffffffffffffffffffffffffffffff1916141515156114a157600080fd5b600060028111156114ae57fe5b60066000846000191660001916815260200190815260200160002060040160009054906101000a900460ff1660028111156114e557fe5b1415156114f157600080fd5b3373ffffffffffffffffffffffffffffffffffffffff1660066000846000191660001916815260200190815260200160002060020160009054906101000a900473ffffffffffffffffffffffffffffffffffffffff1673ffffffffffffffffffffffffffffffffffffffff1614151561156957600080fd5b61159060066000846000191660001916815260200190815260200160002060030154613111565b151561159b57600080fd5b600260066000846000191660001916815260200190815260200160002060040160006101000a81548160ff021916908360028111156115d657fe5b02179055508160001916600760009054906101000a900473ffffffffffffffffffffffffffffffffffffffff1673ffffffffffffffffffffffffffffffffffffffff167f9deeb35dcae810f88ff11beec766eaa1b2e9f1ef7bcefbb8f2a3f91fdf98c42660405160405180910390a360019050919050565b6000806000806000806000808811801561167e57506000600460008a815260200190815260200160002060050154115b151561168957600080fd5b6004600089815260200190815260200160002060010160009054906101000a900473ffffffffffffffffffffffffffffffffffffffff16600460008a815260200190815260200160002060020160009054906101000a900473ffffffffffffffffffffffffffffffffffffffff16600460008b815260200190815260200160002060030154600460008c815260200190815260200160002060040160009054906101000a900460ff16600281111561173d57fe5b600460008d815260200190815260200160002060050154600460008e815260200190815260200160002060060154600460008f8152602001908152602001600020600801549650965096509650965096509650919395979092949650565b6040805190810160405280600581526020017f6f776e657200000000000000000000000000000000000000000000000000000081525081565b6000807f01000000000000000000000000000000000000000000000000000000000000000282600060208110151561180857fe5b1a7f0100000000000000000000000000000000000000000000000000000000000000027effffffffffffffffffffffffffffffffffffffffffffffffffffffffffffff19161415151561185a57600080fd5b6000600281111561186757fe5b60066000846000191660001916815260200190815260200160002060040160009054906101000a900460ff16600281111561189e57fe5b1415156118aa57600080fd5b3373ffffffffffffffffffffffffffffffffffffffff1660066000846000191660001916815260200190815260200160002060010160009054906101000a900473ffffffffffffffffffffffffffffffffffffffff1673ffffffffffffffffffffffffffffffffffffffff1614151561192257600080fd5b6119496006600084600019166000191681526020019081526020016000206003015461343c565b151561195457600080fd5b600160066000846000191660001916815260200190815260200160002060040160006101000a81548160ff0219169083600281111561198f57fe5b02179055508160001916600760009054906101000a900473ffffffffffffffffffffffffffffffffffffffff1673ffffffffffffffffffffffffffffffffffffffff167f5fa8e6f4fbdedc8f67f68ed5dd5a194353476578eb9231d8925543e55fec008a60405160405180910390a360019050919050565b60008060008060008060007f010000000000000000000000000000000000000000000000000000000000000002876000602081101515611a4357fe5b1a7f0100000000000000000000000000000000000000000000000000000000000000027effffffffffffffffffffffffffffffffffffffffffffffffffffffffffffff191614151515611a9557600080fd5b60007f010000000000000000000000000000000000000000000000000000000000000002600660008960001916600019168152602001908152602001600020600001546000602081101515611ae657fe5b1a7f0100000000000000000000000000000000000000000000000000000000000000027effffffffffffffffffffffffffffffffffffffffffffffffffffffffffffff191614151515611b3857600080fd5b611b5f60066000896000191660001916815260200190815260200160002060030154612952565b95509550955095509550955091939550919395565b600080836040518082805190602001908083835b602083101515611bad5780518252602082019150602081019050602083039250611b88565b6001836020036101000a0380198251168184511680821785525050505050509050019150509081526020016040518091039020826040518082805190602001908083835b602083101515611c165780518252602082019150602081019050602083039250611bf1565b6001836020036101000a038019825116818451168082178552505050505050905001915050908152602001604051809103902060009054906101000a900460ff16905092915050565b6040805190810160405280600781526020017f43616e576f726b000000000000000000000000000000000000000000000000008152506040805190810160405280600581526020017f302e312e32000000000000000000000000000000000000000000000000000000815250611cd58282611b74565b151515611ce157600080fd5b600073ffffffffffffffffffffffffffffffffffffffff168573ffffffffffffffffffffffffffffffffffffffff1614158015611d4b5750600073ffffffffffffffffffffffffffffffffffffffff168473ffffffffffffffffffffffffffffffffffffffff1614155b8015611d845750600073ffffffffffffffffffffffffffffffffffffffff168373ffffffffffffffffffffffffffffffffffffffff1614155b1515611d8f57600080fd5b611d9a858585613767565b84600860006101000a81548173ffffffffffffffffffffffffffffffffffffffff021916908373ffffffffffffffffffffffffffffffffffffffff1602179055507fdd117a11c22118c9dee4b5a67ce578bc44529dce21ee0ccc439588fbb9fb4ea38282604051808060200180602001838103835285818151815260200191508051906020019080838360005b83811015611e42578082015181840152602081019050611e27565b50505050905090810190601f168015611e6f5780820380516001836020036101000a031916815260200191505b50838103825284818151815260200191508051906020019080838360005b83811015611ea8578082015181840152602081019050611e8d565b50505050905090810190601f168015611ed55780820380516001836020036101000a031916815260200191505b5094505050505060405180910390a160016000836040518082805190602001908083835b602083101515611f1e5780518252602082019150602081019050602083039250611ef9565b6001836020036101000a0380198251168184511680821785525050505050509050019150509081526020016040518091039020826040518082805190602001908083835b602083101515611f875780518252602082019150602081019050602083039250611f62565b6001836020036101000a038019825116818451168082178552505050505050905001915050908152602001604051809103902060006101000a81548160ff0219169083151502179055505050505050565b60008060003085604051602001808373ffffffffffffffffffffffffffffffffffffffff1673ffffffffffffffffffffffffffffffffffffffff166c010000000000000000000000000281526014018273ffffffffffffffffffffffffffffffffffffffff1673ffffffffffffffffffffffffffffffffffffffff166c01000000000000000000000000028152601401807f656d657267656e63795472616e73666572000000000000000000000000000000815250601101925050506040516020818303038152906040526040518082805190602001908083835b6020831015156120d857805182526020820191506020810190506020830392506120b3565b6001836020036101000a03801982511681845116808217855250505050505090500191505060405180910390209050600560009054906101000a900473ffffffffffffffffffffffffffffffffffffffff1673ffffffffffffffffffffffffffffffffffffffff16634fa6caf682866040518363ffffffff167c0100000000000000000000000000000000000000000000000000000000028152600401808360001916600019168152602001828152602001925050506040805180830381600087803b1580156121a757600080fd5b505af11580156121bb573d6000803e3d6000fd5b505050506040513d60408110156121d157600080fd5b81019080805190602001909291908051906020019092919050505092509250509250929050565b6040805190810160405280600581526020017f61646d696e00000000000000000000000000000000000000000000000000000081525081565b6000803083604051602001808373ffffffffffffffffffffffffffffffffffffffff1673ffffffffffffffffffffffffffffffffffffffff166c010000000000000000000000000281526014018273ffffffffffffffffffffffffffffffffffffffff1673ffffffffffffffffffffffffffffffffffffffff166c01000000000000000000000000028152601401807f656d657267656e63795472616e73666572000000000000000000000000000000815250601101925050506040516020818303038152906040526040518082805190602001908083835b60208310151561232f578051825260208201915060208101905060208303925061230a565b6001836020036101000a03801982511681845116808217855250505050505090500191505060405180910390209050600560009054906101000a900473ffffffffffffffffffffffffffffffffffffffff1673ffffffffffffffffffffffffffffffffffffffff166346aaf139826040518263ffffffff167c0100000000000000000000000000000000000000000000000000000000028152600401808260001916600019168152602001915050602060405180830381600087803b1580156123f757600080fd5b505af115801561240b573d6000803e3d6000fd5b505050506040513d602081101561242157600080fd5b810190808051906020019092919050505060ff16915050919050565b60008060007f01000000000000000000000000000000000000000000000000000000000000000286600060208110151561247357fe5b1a7f0100000000000000000000000000000000000000000000000000000000000000027effffffffffffffffffffffffffffffffffffffffffffffffffffffffffffff1916141515156124c557600080fd5b60007f01000000000000000000000000000000000000000000000000000000000000000260066000886000191660001916815260200190815260200160002060000154600060208110151561251657fe5b1a7f0100000000000000000000000000000000000000000000000000000000000000027effffffffffffffffffffffffffffffffffffffffffffffffffffffffffffff191614151561256757600080fd5b61259f6064612591600560149054906101000a900460ff1660ff1686612a4390919063ffffffff16565b612a7b90919063ffffffff16565b90508560066000886000191660001916815260200190815260200160002060000181600019169055508460066000886000191660001916815260200190815260200160002060010160006101000a81548173ffffffffffffffffffffffffffffffffffffffff021916908373ffffffffffffffffffffffffffffffffffffffff1602179055508360066000886000191660001916815260200190815260200160002060020160006101000a81548173ffffffffffffffffffffffffffffffffffffffff021916908373ffffffffffffffffffffffffffffffffffffffff160217905550600060066000886000191660001916815260200190815260200160002060040160006101000a81548160ff021916908360028111156126bd57fe5b021790555082600660008860001916600019168152602001908152602001600020600501819055506126f185858584613b3c565b600660008860001916600019168152602001908152602001600020600301819055508373ffffffffffffffffffffffffffffffffffffffff168660001916600760009054906101000a900473ffffffffffffffffffffffffffffffffffffffff1673ffffffffffffffffffffffffffffffffffffffff167f06ec2805bab16df077e1bf66c474762caec30f56f6c01e4e673aa60b8dca979e8887604051808373ffffffffffffffffffffffffffffffffffffffff1673ffffffffffffffffffffffffffffffffffffffff1681526020018281526020019250505060405180910390a46001915050949350505050565b6000806000806000806000807f01000000000000000000000000000000000000000000000000000000000000000288600060208110151561281d57fe5b1a7f0100000000000000000000000000000000000000000000000000000000000000027effffffffffffffffffffffffffffffffffffffffffffffffffffffffffffff19161415151561286f57600080fd5b60007f010000000000000000000000000000000000000000000000000000000000000002600660008a600019166000191681526020019081526020016000206000015460006020811015156128c057fe5b1a7f0100000000000000000000000000000000000000000000000000000000000000027effffffffffffffffffffffffffffffffffffffffffffffffffffffffffffff19161415151561291257600080fd5b612939600660008a600019166000191681526020019081526020016000206003015461164e565b9650965096509650965096509650919395979092949650565b600080600080600080600087118015612981575060006004600089815260200190815260200160002060050154115b151561298c57600080fd5b6004600088815260200190815260200160002060040160009054906101000a900460ff1660028111156129bb57fe5b6004600089815260200190815260200160002060030154600460008a815260200190815260200160002060070154600460008b815260200190815260200160002060080154600460008c815260200190815260200160002060090154600460008d8152602001908152602001600020600a015495509550955095509550955091939550919395565b600080831415612a565760009050612a75565b8183029050818382811515612a6757fe5b04141515612a7157fe5b8090505b92915050565b60008183811515612a8857fe5b04905092915050565b60008060006002811115612aa157fe5b6004600088815260200190815260200160002060040160009054906101000a900460ff166002811115612ad057fe5b141515612adc57600080fd5b60008510158015612aee575060008310155b1515612af957600080fd5b612b3485612b2685600460008b81526020019081526020016000206007015461400b90919063ffffffff16565b61400b90919063ffffffff16565b600460008881526020019081526020016000206003015410151515612b5857600080fd5b60026004600088815260200190815260200160002060040160006101000a81548160ff02191690836002811115612b8b57fe5b02179055504360046000888152602001908152602001600020600601819055506000831115612d1757600073ffffffffffffffffffffffffffffffffffffffff168473ffffffffffffffffffffffffffffffffffffffff1614151515612bf057600080fd5b8260046000888152602001908152602001600020600a0181905550600160009054906101000a900473ffffffffffffffffffffffffffffffffffffffff1673ffffffffffffffffffffffffffffffffffffffff1663a9059cbb85856040518363ffffffff167c0100000000000000000000000000000000000000000000000000000000028152600401808373ffffffffffffffffffffffffffffffffffffffff1673ffffffffffffffffffffffffffffffffffffffff16815260200182815260200192505050602060405180830381600087803b158015612cd057600080fd5b505af1158015612ce4573d6000803e3d6000fd5b505050506040513d6020811015612cfa57600080fd5b81019080805190602001909291905050501515612d1657600080fd5b5b6000851115612e7d57846004600088815260200190815260200160002060080181905550600160009054906101000a900473ffffffffffffffffffffffffffffffffffffffff1673ffffffffffffffffffffffffffffffffffffffff1663a9059cbb6004600089815260200190815260200160002060020160009054906101000a900473ffffffffffffffffffffffffffffffffffffffff16876040518363ffffffff167c0100000000000000000000000000000000000000000000000000000000028152600401808373ffffffffffffffffffffffffffffffffffffffff1673ffffffffffffffffffffffffffffffffffffffff16815260200182815260200192505050602060405180830381600087803b158015612e3657600080fd5b505af1158015612e4a573d6000803e3d6000fd5b505050506040513d6020811015612e6057600080fd5b81019080805190602001909291905050501515612e7c57600080fd5b5b612eb885612eaa85600460008b81526020019081526020016000206007015461400b90919063ffffffff16565b61400b90919063ffffffff16565b9050612ee381600460008981526020019081526020016000206003015461402790919063ffffffff16565b600460008881526020019081526020016000206009018190555060006004600088815260200190815260200160002060090154111561307457600160009054906101000a900473ffffffffffffffffffffffffffffffffffffffff1673ffffffffffffffffffffffffffffffffffffffff1663a9059cbb6004600089815260200190815260200160002060010160009054906101000a900473ffffffffffffffffffffffffffffffffffffffff16600460008a8152602001908152602001600020600901546040518363ffffffff167c0100000000000000000000000000000000000000000000000000000000028152600401808373ffffffffffffffffffffffffffffffffffffffff1673ffffffffffffffffffffffffffffffffffffffff16815260200182815260200192505050602060405180830381600087803b15801561302d57600080fd5b505af1158015613041573d6000803e3d6000fd5b505050506040513d602081101561305757600080fd5b8101908080519060200190929190505050151561307357600080fd5b5b8373ffffffffffffffffffffffffffffffffffffffff1686600360009054906101000a900473ffffffffffffffffffffffffffffffffffffffff1673ffffffffffffffffffffffffffffffffffffffff167f23157ee5a4e89bcebb1fc3e9b6e1533aefe88f9bde92308b49a71e800103542b8887604051808381526020018281526020019250505060405180910390a46001915050949350505050565b600080600281111561311f57fe5b6004600084815260200190815260200160002060040160009054906101000a900460ff16600281111561314e57fe5b14151561315a57600080fd5b3373ffffffffffffffffffffffffffffffffffffffff166004600084815260200190815260200160002060020160009054906101000a900473ffffffffffffffffffffffffffffffffffffffff1673ffffffffffffffffffffffffffffffffffffffff161415156131ca57600080fd5b6132096004600084815260200190815260200160002060070154600460008581526020019081526020016000206003015461402790919063ffffffff16565b600460008481526020019081526020016000206009018190555060026004600084815260200190815260200160002060040160006101000a81548160ff0219169083600281111561325657fe5b0217905550436004600084815260200190815260200160002060060181905550600160009054906101000a900473ffffffffffffffffffffffffffffffffffffffff1673ffffffffffffffffffffffffffffffffffffffff1663a9059cbb6004600085815260200190815260200160002060010160009054906101000a900473ffffffffffffffffffffffffffffffffffffffff1660046000868152602001908152602001600020600901546040518363ffffffff167c0100000000000000000000000000000000000000000000000000000000028152600401808373ffffffffffffffffffffffffffffffffffffffff1673ffffffffffffffffffffffffffffffffffffffff16815260200182815260200192505050602060405180830381600087803b15801561338757600080fd5b505af115801561339b573d6000803e3d6000fd5b505050506040513d60208110156133b157600080fd5b810190808051906020019092919050505015156133cd57600080fd5b81600360009054906101000a900473ffffffffffffffffffffffffffffffffffffffff1673ffffffffffffffffffffffffffffffffffffffff167f42a9d051cfad92ff80e72d1f2fe48fd37941d2e3d8a231b4a2a6993474dd672660405160405180910390a360019050919050565b600080600281111561344a57fe5b6004600084815260200190815260200160002060040160009054906101000a900460ff16600281111561347957fe5b14151561348557600080fd5b3373ffffffffffffffffffffffffffffffffffffffff166004600084815260200190815260200160002060010160009054906101000a900473ffffffffffffffffffffffffffffffffffffffff1673ffffffffffffffffffffffffffffffffffffffff161415156134f557600080fd5b60016004600084815260200190815260200160002060040160006101000a81548160ff0219169083600281111561352857fe5b021790555061356c6004600084815260200190815260200160002060070154600460008581526020019081526020016000206003015461402790919063ffffffff16565b6004600084815260200190815260200160002060080181905550436004600084815260200190815260200160002060060181905550600160009054906101000a900473ffffffffffffffffffffffffffffffffffffffff1673ffffffffffffffffffffffffffffffffffffffff1663a9059cbb6004600085815260200190815260200160002060020160009054906101000a900473ffffffffffffffffffffffffffffffffffffffff1660046000868152602001908152602001600020600801546040518363ffffffff167c0100000000000000000000000000000000000000000000000000000000028152600401808373ffffffffffffffffffffffffffffffffffffffff1673ffffffffffffffffffffffffffffffffffffffff16815260200182815260200192505050602060405180830381600087803b1580156136b257600080fd5b505af11580156136c6573d6000803e3d6000fd5b505050506040513d60208110156136dc57600080fd5b810190808051906020019092919050505015156136f857600080fd5b81600360009054906101000a900473ffffffffffffffffffffffffffffffffffffffff1673ffffffffffffffffffffffffffffffffffffffff167f4bebfffc0dc0fb54ffd42c8fe2424e8fe0c482f089c4d0d6e6f1ea5d9e34248a60405160405180910390a360019050919050565b6040805190810160405280600a81526020017f43616e576f726b4a6f62000000000000000000000000000000000000000000008152506040805190810160405280600581526020017f302e312e330000000000000000000000000000000000000000000000000000008152506137dd8282611b74565b1515156137e957600080fd5b600073ffffffffffffffffffffffffffffffffffffffff168573ffffffffffffffffffffffffffffffffffffffff16141580156138535750600073ffffffffffffffffffffffffffffffffffffffff168473ffffffffffffffffffffffffffffffffffffffff1614155b801561388c5750600073ffffffffffffffffffffffffffffffffffffffff168373ffffffffffffffffffffffffffffffffffffffff1614155b151561389757600080fd5b6138a18584614040565b83600560006101000a81548173ffffffffffffffffffffffffffffffffffffffff021916908373ffffffffffffffffffffffffffffffffffffffff16021790555082600760006101000a81548173ffffffffffffffffffffffffffffffffffffffff021916908373ffffffffffffffffffffffffffffffffffffffff1602179055506001600560146101000a81548160ff021916908360ff1602179055507fdd117a11c22118c9dee4b5a67ce578bc44529dce21ee0ccc439588fbb9fb4ea38282604051808060200180602001838103835285818151815260200191508051906020019080838360005b838110156139a657808201518184015260208101905061398b565b50505050905090810190601f1680156139d35780820380516001836020036101000a031916815260200191505b50838103825284818151815260200191508051906020019080838360005b83811015613a0c5780820151818401526020810190506139f1565b50505050905090810190601f168015613a395780820380516001836020036101000a031916815260200191505b5094505050505060405180910390a160016000836040518082805190602001908083835b602083101515613a825780518252602082019150602081019050602083039250613a5d565b6001836020036101000a0380198251168184511680821785525050505050509050019150509081526020016040518091039020826040518082805190602001908083835b602083101515613aeb5780518252602082019150602081019050602083039250613ac6565b6001836020036101000a038019825116818451168082178552505050505050905001915050908152602001604051809103902060006101000a81548160ff0219169083151502179055505050505050565b60008060008073ffffffffffffffffffffffffffffffffffffffff168773ffffffffffffffffffffffffffffffffffffffff1614158015613baa5750600073ffffffffffffffffffffffffffffffffffffffff168673ffffffffffffffffffffffffffffffffffffffff1614155b8015613bb65750600085115b8015613bc3575060008410155b1515613bce57600080fd5b600160009054906101000a900473ffffffffffffffffffffffffffffffffffffffff1673ffffffffffffffffffffffffffffffffffffffff166323b872dd8830886040518463ffffffff167c0100000000000000000000000000000000000000000000000000000000028152600401808473ffffffffffffffffffffffffffffffffffffffff1673ffffffffffffffffffffffffffffffffffffffff1681526020018373ffffffffffffffffffffffffffffffffffffffff1673ffffffffffffffffffffffffffffffffffffffff1681526020018281526020019350505050602060405180830381600087803b158015613cc757600080fd5b505af1158015613cdb573d6000803e3d6000fd5b505050506040513d6020811015613cf157600080fd5b81019080805190602001909291905050501515613d0d57600080fd5b6002600081546001019190508190559150600460008381526020019081526020016000209050818160000181905550868160010160006101000a81548173ffffffffffffffffffffffffffffffffffffffff021916908373ffffffffffffffffffffffffffffffffffffffff160217905550858160020160006101000a81548173ffffffffffffffffffffffffffffffffffffffff021916908373ffffffffffffffffffffffffffffffffffffffff16021790555084816003018190555043816005018190555060008160040160006101000a81548160ff02191690836002811115613df557fe5b02179055506000816008018190555060008160090181905550600081600a01819055506000841115613f5857838160070181905550600160009054906101000a900473ffffffffffffffffffffffffffffffffffffffff1673ffffffffffffffffffffffffffffffffffffffff1663a9059cbb600360009054906101000a900473ffffffffffffffffffffffffffffffffffffffff16866040518363ffffffff167c0100000000000000000000000000000000000000000000000000000000028152600401808373ffffffffffffffffffffffffffffffffffffffff1673ffffffffffffffffffffffffffffffffffffffff16815260200182815260200192505050602060405180830381600087803b158015613f1157600080fd5b505af1158015613f25573d6000803e3d6000fd5b505050506040513d6020811015613f3b57600080fd5b81019080805190602001909291905050501515613f5757600080fd5b5b8573ffffffffffffffffffffffffffffffffffffffff168773ffffffffffffffffffffffffffffffffffffffff16600360009054906101000a900473ffffffffffffffffffffffffffffffffffffffff1673ffffffffffffffffffffffffffffffffffffffff167f2deff110fb90284ba1ebd12f5a2a449109b5327e5144dcf39bae0fa2fcfa7afb8888604051808381526020018281526020019250505060405180910390a48192505050949350505050565b6000818301905082811015151561401e57fe5b80905092915050565b600082821115151561403557fe5b818303905092915050565b6040805190810160405280600681526020017f457363726f7700000000000000000000000000000000000000000000000000008152506040805190810160405280600581526020017f302e312e330000000000000000000000000000000000000000000000000000008152506140b68282611b74565b1515156140c257600080fd5b600073ffffffffffffffffffffffffffffffffffffffff168473ffffffffffffffffffffffffffffffffffffffff161415801561412c5750600073ffffffffffffffffffffffffffffffffffffffff168373ffffffffffffffffffffffffffffffffffffffff1614155b151561413757600080fd5b83600160006101000a81548173ffffffffffffffffffffffffffffffffffffffff021916908373ffffffffffffffffffffffffffffffffffffffff16021790555082600360006101000a81548173ffffffffffffffffffffffffffffffffffffffff021916908373ffffffffffffffffffffffffffffffffffffffff1602179055508273ffffffffffffffffffffffffffffffffffffffff168473ffffffffffffffffffffffffffffffffffffffff167f0a3c5299ff3c9081aca91f75b9d88d7e14be19d31ca64abbf9ad33bbe98fb32660405160405180910390a37fdd117a11c22118c9dee4b5a67ce578bc44529dce21ee0ccc439588fbb9fb4ea38282604051808060200180602001838103835285818151815260200191508051906020019080838360005b8381101561427a57808201518184015260208101905061425f565b50505050905090810190601f1680156142a75780820380516001836020036101000a031916815260200191505b50838103825284818151815260200191508051906020019080838360005b838110156142e05780820151818401526020810190506142c5565b50505050905090810190601f16801561430d5780820380516001836020036101000a031916815260200191505b5094505050505060405180910390a160016000836040518082805190602001908083835b6020831015156143565780518252602082019150602081019050602083039250614331565b6001836020036101000a0380198251168184511680821785525050505050509050019150509081526020016040518091039020826040518082805190602001908083835b6020831015156143bf578051825260208201915060208101905060208303925061439a565b6001836020036101000a038019825116818451168082178552505050505050905001915050908152602001604051809103902060006101000a81548160ff021916908315150217905550505050505600a165627a7a72305820538b46a612829c5d06f69fdbd9ccf8301006d9fb425ec8dfe84d9ab830d106e30029",
  "source": "pragma solidity 0.4.24;\n\nimport \"./CanWorkJob.sol\";\n// import \"./Debugable.sol\";\n\n\ncontract CanWork is CanWorkJob {\n  ERC20 canYaCoin;  \n\n  event OnEmeregencyTransfer(address indexed toAddress, uint256 balance);\n\n  function initialize(ERC20 _token, CanWorkAdmin _canworkAdmin, address _dApp) \n  public \n  isInitializer(\"CanWork\", \"0.1.2\") {\n      require(_token != address(0) && _canworkAdmin != address(0) && _dApp != address(0));\n\n      CanWorkJob.initialize(_token, _canworkAdmin, _dApp);      \n\n      canYaCoin = _token;        \n  }\n  \n  function emergencyTransfer(address toAddress) \n  public     \n  returns (bool) {\n    require(toAddress != address(0));\n\n    bytes32 uniqueId = keccak256(abi.encodePacked(address(this), toAddress, \"emergencyTransfer\"));\n\n    if (canworkAdmin.getSignersCount(uniqueId) < 2) {\n      canworkAdmin.addSig(msg.sender, uniqueId);\n      return false;\n    }\n\n    canworkAdmin.addSig(msg.sender, uniqueId);\n\n    canworkAdmin.resetSignature(uniqueId);\n\n    uint256 balance = canYaCoin.balanceOf(address(this));\n    canYaCoin.transfer(toAddress, balance);\n\n    emit OnEmeregencyTransfer(toAddress, balance);\n\n    return true;\n  }\n\n  function getEmergencyTransferSignersCount(address _toAddress)\n  public \n  view \n  returns(uint)\n  {   \n    bytes32 uniqueId = keccak256(abi.encodePacked(address(this), _toAddress, \"emergencyTransfer\"));\n    return canworkAdmin.getSignersCount(uniqueId);\n  }    \n\n  function getEmergencyTransferSigner(address _owner, uint index)\n  public \n  view \n  returns (address,bool)\n  {\n    bytes32 uniqueId = keccak256(abi.encodePacked(address(this), _owner, \"emergencyTransfer\"));\n    return canworkAdmin.getSigner(uniqueId, index);\n  }  \n  \n}",
  "sourcePath": "/Users/user/workspace_work/CanYa/canwork-contracts/canwork-job/contracts/CanWork.sol",
  "compiler": {
    "name": "solc",
    "version": "0.4.24+commit.e67f0147.Emscripten.clang"
  },
  "schemaVersion": "2.0.0",
  "updatedAt": "2018-07-24T00:45:01.430Z"
}